:020000040000FA
:100000000C944E020C947F020C947F020C947F029D
:100010000C947F020C947F020C947F020C947F025C
:100020000C947F020C947F020C947F020C947F024C
:100030000C947F020C947F020C947F020C947F023C
:100040000C947F020C947F020C947F020C947F022C
:100050000C947F020C947F020C947F020C94F70C9A
:100060000C947F020C94C10C0C94970C0C947F029E
:100070000C947F020C947F020C947F020C947F02FC
:100080000C947F020C947F020C947F020C947F02EC
:100090000C947F020C947F020C947F020C947F02DC
:1000A0000C947F020C947F020C947F020C947F02CC
:1000B0000C947F020C947F020C947F020C947F02BC
:1000C0000C947F020C947F020C947F020C947F02AC
:1000D0000C947F020C947F020C947F020C947F029C
:1000E0000C947F020C94DC030C94C5040C94DC0487
:1000F0000C941B050C94FF040C94CA040C94A403E8
:100100000C947B070C9477050C94FA060C949707D3
:100110000C946D070C94F4050C9465070C9410076F
:100120000C94EB040C9463110C94A7060C94C90571
:100130000C94E4040C9482030C9474070C9417053B
:100140000C940D050C94F0050C94EE050C94410DE7
:100150000C9489070C94F5040C94C8060C94FB04C9
:100160000C9482070C9496030C9473060C94E00490
:100170000C9409050C9473030C944E070C94F80529
:100180000C94AB050C94E8040C9411050C944404F5
:100190000C9403050C94FC050C94FA050C9452067F
:1001A0000C94F1040C9446030C94F2050C94900703
:1001B0000C94F6054E414E494E495459494E46CD90
:1001C000CCCC3D0AD7233C17B7D13877CC2B32950E
:1001D00095E6241FB14F0A000020410000C84200EC
:1001E000401C4620BCBE4CCA1B0E5AAEC59D7400B6
:1001F000002100240027002A002D003000330001D8
:10020000010000040107010A0100000A0B02090CA9
:100210000D0E0807030401000000000000000000AC
:1002200000000000000000000000000000000000CE
:10023000000000000012111000000000000000008B
:100240000000000000000000000000000000004D61
:100250003131343B202D207265706F727420706FC5
:10026000736974696F6E20616E642066656564727F
:10027000617465004D3130303B202D207468697306
:100280002068656C70206D657373616765004D3221
:10029000323B202D207475726E207269676874205D
:1002A0006C61736572206F6666004D32313B202DA4
:1002B000207475726E207269676874206C61736552
:1002C00072206F6E004D32303B202D207475726E9F
:1002D000206C656674206C61736572206F666600C1
:1002E0004D31393B202D207475726E206C6566741B
:1002F000206C61736572206F6E004D31383B202D8C
:100300002064697361626C65206D6F746F72730035
:100310004D31373B202D20656E61626C65206D6F1D
:10032000746F7273004D3035205B522876616C75A6
:1003300065295D205B472876616C7565295D205BCA
:10034000422876616C7565295D205B572876616C63
:100350007565295D203B202D20736574204E656FE7
:10036000506978656C204C45442076616C756573E6
:1003700000473031205B54287374657073295D2009
:100380005B4C287374657073295D205B4628666535
:10039000656472617465295D3B202D206D6F766503
:1003A00000473030205B54287374657073295D3BBF
:1003B000202D206C696E656172206D6F766500433B
:1003C0006F6D6D616E64733A004661625363616E76
:1003D00020472D434F44444520496E746572707226
:1003E000657465722056657273696F6E3A20003EBF
:1003F0000001021020200808102040102040800238
:10040000010201080402010102040810204080805A
:1004100040201008040201800402018040201008DE
:1004200004020108040201010204081020408001B6
:100430000204081020408000002200250028002B24
:10044000002E003100340002010000050108010BFC
:100450000105050505070508080808020202020A49
:100460000A08080404040401010101010101010357
:1004700003030303030303040707070C0C0C0C0C12
:100480000C0C0C0202020206060606060606060B05
:100490000B0B0B0B0B0B0B00410D631111241FBE3B
:1004A000CFEFD1E2DEBFCDBF00E00CBF23E0A0E480
:1004B000B2E001C01D92A938B207E1F712E0A0E056
:1004C000B2E0EAEBFEE200E00BBF02C007900D9243
:1004D000A034B107D9F712E0CDE4D2E000E006C0C5
:1004E00021970109802FFE010E94F115CC34D1071C
:1004F00080E00807A9F70E94EB0D0C944B170C94B1
:100500000000FC01A9E2B3E012968C91129782835D
:1005100013968C911397838314968C9114978483EC
:1005200015968C911597858316968C9116978683D0
:1005300017968C911797878318968C9118978087B8
:1005400019968C91199781871A968C911A978287A0
:100550001B968C911B9783871C964D915D916D9195
:100560007C911F97448755876687778750964D9172
:100570005D916D917C915397408B518B628B738B06
:1005800054964D915D916D917C915797448B558B0D
:10059000668B778B58964D915D916D917C915B97B1
:1005A000408F518F628F738F5C964D915D916D91ED
:1005B0007C915F97448F558F668F778F90964D9182
:1005C0005D916D917C91939740A351A362A373A316
:1005D00094964D915D916D917C91979744A355A30D
:1005E00066A377A398964D915D916D917C919B97B1
:1005F00040A751A762A773A79C968D919C919D9748
:1006000095A784A79E968C919E9786A79F968C917E
:100610009F9787A7D0968D919C91D19791AB80ABF6
:10062000D2968D919C91D39793AB82ABD4964D91FA
:100630005D916D917C91D79744AB55AB66AB77AB31
:10064000D8964D915D916D917C91DB9740AF51AF04
:1006500062AF73AFDC968D919D910D90BC91A02DF2
:1006600084AF95AFA6AFB7AF4091690350916A03CD
:1006700060916B0370916C03DF01A05CBF4F4D93E1
:100680005D936D937C931397CF010895AF92BF92C2
:10069000CF92DF92EF92FF920F931F93CF93DF934E
:1006A0006C017B018B01040F151FEB015E01AE187D
:1006B000BF08C017D10759F06991D601ED91FC919F
:1006C0000190F081E02DC6011995892B79F7C501BC
:1006D000DF91CF911F910F91FF90EF90DF90CF901E
:1006E000BF90AF900895FC01538D448D252F30E0CD
:1006F000842F90E0821B930B541710F0CF9608952F
:1007000001970895FC01918D828D981761F0A28D5B
:10071000AE0FBF2FB11D5D968C91928D9F5F9F7321
:10072000928F90E008958FEF9FEF0895FC01918DD7
:10073000828D981731F0828DE80FF11D858D90E044
:1007400008958FEF9FEF0895FC01918D228D892FE1
:1007500090E0805C9F4F821B91098F7399270895C9
:100760008CE892E00E94A40321E0892B09F420E0A8
:10077000822F0895FC01A48DA80FB92FB11DA35A93
:10078000BF4F2C91848D90E001968F739927848FB1
:10079000A689B7892C93A089B1898C9183708064D4
:1007A0008C93938D848D981306C00288F389E02D75
:1007B00080818F7D80830895EF92FF920F931F9326
:1007C000CF93DF93EC0181E0888F9B8D8C8D981304
:1007D0001AC0E889F989808185FF15C09FB7F89410
:1007E000EE89FF896083E889F9898081837080645C
:1007F00080839FBF81E090E0DF91CF911F910F91A7
:10080000FF90EF900895F62E0B8D10E00F5F1F4FB5
:100810000F731127E02E8C8D8E110CC00FB607FCC4
:10082000FACFE889F989808185FFF5CFCE010E9452
:10083000BA03F1CFEB8DEC0FFD2FF11DE35AFF4F03
:10084000F0829FB7F8940B8FEA89FB8980818062E0
:10085000CFCF0F931F93CF93DF938C01D0E0C0E0F5
:10086000F801EC0FFD1F6491662341F08CE892E0E3
:100870000E94DC03892B11F02196F2CFCE01DF918B
:10088000CF911F910F910895CF93DF93EC01888D45
:100890008823B9F0AA89BB89E889F9898C9185FDFB
:1008A00003C0808186FD0DC00FB607FCF7CF8C9189
:1008B00085FFF2CF808185FFEDCFCE010E94BA0384
:1008C000E9CFDF91CF91089580E090E0892B29F066
:1008D0000E94B00381110E94000080E090E0892B0B
:1008E00049F080E090E0892B29F00E9400008111FE
:1008F0000E94000080E090E0892B49F080E090E0C9
:10090000892B29F00E94000081110E94000080E0E4
:1009100090E0892B49F080E090E0892B29F00E943B
:10092000000081110C9400000895282F30E0F90197
:10093000E75FFD4F9491F901EF50FC4F44912F5A1E
:100940003B4FF9012491222309F435C0992311F179
:1009500091509231F8F4E92FF0E08827ED54FB4FE5
:100960008F4F0C94F115E404E804C504DC04E004A2
:10097000CA04EB04F104F504FB04FF0403050905B4
:100980000D05CA04110517051B05809180008F779E
:1009900080938000E22FF0E0EE0FFF1FE95CFB4F39
:1009A000A591B4918FB7F894EC91611148C040952E
:1009B0004E234C938FBF0895809180008F7DE8CFA8
:1009C00080918000877FE4CF84B58F7784BDE2CFAC
:1009D00084B58F7DFBCF8091B0008F778093B0007E
:1009E000D9CF8091B0008F7DF9CF809190008F7723
:1009F00080939000CFCF809190008F7DF9CF809130
:100A00009000877FF5CF8091A0008F778093A00022
:100A1000C1CF8091A0008F7DF9CF8091A000877F0A
:100A2000F5CF809120018F7780932001B3CF809103
:100A300020018F7DF9CF80912001877FF5CF4E2B4C
:100A4000B8CFCF93DF9390E0FC01EF50FC4F24919F
:100A50008F5A9B4FFC0184918823D1F090E0880F3E
:100A6000991FFC01E151FE4FA591B491FC01E95C95
:100A7000FB4FC591D49161110EC09FB7F8948C9132
:100A8000E22FE0958E238C932881E223E8839FBF99
:100A9000DF91CF9108958FB7F894EC91E22BEC930E
:100AA0008FBFF6CF3FB7F8948091450290914602F0
:100AB000A0914702B091480226B5A89B05C02F3FE0
:100AC00019F00196A11DB11D3FBFBA2FA92F982F74
:100AD0008827BC01CD01620F711D811D911D42E06F
:100AE000660F771F881F991F4A95D1F70895CF93F6
:100AF000DF93FC012381222359F1EC0161E0848121
:100B00000E94210561E08D810E9421058B81843046
:100B100011F08830B1F461E08E810E94210561E01E
:100B20008F810E9421058FA58F3F91F061E00E9487
:100B300021056EA581E068278FA5DF91CF910C94E8
:100B40009504833011F0863071F761E08E81E9CF32
:100B5000DF91CF910895CF93DF93FC01238122236E
:100B6000A9F0EC010190F081E02D0480F581E02DE9
:100B700060E019958FA58F3F49F061E00E94210543
:100B80006EA58FA5DF91CF910C949504DF91CF9145
:100B90000895DC01ED91FC91119724813581477016
:100BA0005527662777274150510961097109473058
:100BB00051056105710570F4FA018827ED51FA4F6E
:100BC0008F4F0C94F115EE05F005F205F405F605CE
:100BD000F805FA0561E0CD01F901199465E0FBCF54
:100BE00064E0F9CF66E0F7CF62E0F5CF6AE0F3CFDB
:100BF00068E0F1CF69E0EFCFCF93DF93EC01CB0159
:100C0000BA0126E030E040E050E00E94D2156230A8
:100C100071058105910589F16CF4611571058105F6
:100C20009105D1F06130710581059105F9F0DF91F1
:100C3000CF910895643071058105910561F124F12A
:100C4000653071058105910591F7E881F98104808E
:100C5000F581E02D66E006C0E881F9810480F58128
:100C6000E02D64E0CE01DF91CF911994E881F98104
:100C70000480F581E02D65E0F5CFE881F9810480FD
:100C8000F581E02D61E0EECFE881F9810480F58106
:100C9000E02D63E0E7CFE881F9810480F581E02D64
:100CA00062E0E0CFDC01ED91FC910480F581E02D64
:100CB0004370552766277727423051056105710536
:100CC00071F0433051056105710559F0413051050E
:100CD0006105710511F065E0199466E0FDCF6AE0E9
:100CE000FBCF69E0F9CFCF93DF93EC01CB01BA01E1
:100CF00023E030E040E050E00E94D2156130710501
:100D00008105910599F06230710581059105A9F081
:100D1000672B682B692BC1F4E881F9810480F58188
:100D2000E02D64E0CE01DF91CF911994E881F98143
:100D30000480F581E02D61E0F5CFE881F981048040
:100D4000F581E02D62E0EECFDF91CF910895DC01D7
:100D5000ED91FC910480F581E02D437055276627C5
:100D60007727423051056105710571F04330510517
:100D70006105710559F0413051056105710511F0AA
:100D800062E0199463E0FDCF61E0FBCF60E0F9CF52
:100D9000CF93DF93EC01E881F9810480F581E02DA8
:100DA0008A8160E0811162E0CE011995E881F981C4
:100DB0000480F581E02D8A8161E0811163E0CE013C
:100DC00019958CA59DA58230910538F0880F991F43
:100DD000880F991F05970197F1F7E881F981048041
:100DE000F581E02D8A8160E0811162E0CE01DF9122
:100DF000CF911994CF93DF93EC0120E030E0A9016B
:100E00006C897D898E899F890E94721518162CF431
:100E1000E8A9F9A9DF91CF911994EAA9FBA9FACF22
:100E2000CF92DF92EF92FF920F931F93CF93DF93B6
:100E3000DC011396CC91C43039F0C83059F1C3307D
:100E400019F0C63049F1C2E08C010C5F1F4FF12C44
:100E5000E12CC62ED12CD1E0F8016481C6010E2C04
:100E600002C0959587950A94E2F780FD6D270F5F84
:100E70001F4F80810E949504BFEFEB1AFB0AEC160E
:100E800058F3DF91CF911F910F91FF90EF90DF907A
:100E9000CF900895C4E0D8CFC3E0D6CFDC0113963D
:100EA000EC911397E93008F042C0F0E08827E45A4B
:100EB000F84F8F4F0C94F11565076D0774077B078A
:100EC00082079707890797079007ED91FC91119783
:100ED0000084F185E02DCD011994ED91FC911197DD
:100EE0000284F385E02DF7CFED91FC9111970484F6
:100EF000F585E02DF0CFED91FC9111970684F785F3
:100F0000E02DE9CFED91FC9111970088F189E02D5A
:100F1000E2CFED91FC9111970288F389E02DDBCFB0
:100F2000ED91FC9111970488F589E02DD4CF0895B7
:100F3000CF92DF92EF92FF92CF93DF93EC010E946A
:100F400052056B017C0188A599A5AAA5BBA5B7018F
:100F5000A601481B590B6A0B7B0B8CA19DA1AEA16E
:100F6000BFA1481759076A077B0728F18C859D8523
:100F7000AE85BF852A812223D1F00196A11DB11D26
:100F80008C879D87AE87BF874C855D856E857F8505
:100F9000CE010E944E07C8A6D9A6EAA6FBA681E00C
:100FA000DF91CF91FF90EF90DF90CF900895019760
:100FB000A109B109E5CF80E0F3CF4F925F926F9224
:100FC0007F92AF92BF92CF92DF92EF92FF920F93F8
:100FD0001F93CF93DF93EC015A018B019A01AB0170
:100FE0006C897D898E899F890E941C13882379F1E1
:100FF000488C598C6A8C7B8C73016201F7FAF094EF
:10100000F7F8F094A7019601B501C8010E941C13DE
:1010100087FD0CC0A3019201B501C8010E947215A1
:1010200073016201181614F06501780120E030E0C8
:10103000A901C701B6010E941C13811117C01CA28F
:101040001DA21EA21FA2CC8ADD8AEE8AFF8ADF9132
:10105000CF911F910F91FF90EF90DF90CF90BF90B5
:10106000AF907F906F905F904F900895A701960189
:1010700060E074E284E799E40E94CA149F770E94BA
:1010800043156CA37DA38EA39FA311E020E030E065
:10109000A901C701B6010E94721518160CF010E0E4
:1010A0001A83D1CF4F925F926F927F928F929F92CD
:1010B000AF92BF92CF92DF92EF92FF920F931F9366
:1010C000CF93DF93EC01C888D988EA88FB888C85A8
:1010D0009D85AE85BF85C81AD90AEA0AFB0A6C89C4
:1010E0007D898E899F899B01AC010E9482134B01EF
:1010F0005C016C8D7D8D8E8D9F8D9B01AC010E945E
:101100005E149B01AC01C501B4010E94CA140E9487
:101110003C15C114D104E104F10409F0B1C06230FE
:101120007105810591050CF0CBC01CA21DA21EA269
:101130001FA21C8A1D8A1E8A1F8A1CAA1DAA1EAAFB
:101140001FAADF91CF911F910F91FF90EF90DF9039
:10115000CF90BF90AF909F908F907F906F905F9057
:101160004F9008951016110612061306B4F46C156C
:101170007D058E059F051CF42A812111A1C09B01CC
:10118000AC0188279927DC01821B930BA40BB50BBC
:101190008CAB9DABAEABBFAB93C001151105210568
:1011A000310509F48DC06C157D058E059F050CF089
:1011B00087C08A81882309F483C0309520951095D3
:1011C00001951F4F2F4F3F4F0CAB1DAB2EAB3FABCD
:1011D00077C0011511052105310509F471C0882476
:1011E000992454018C189D08AE08BF08681579052C
:1011F0008A059B050CF064C08A81811161C0DDCF36
:10120000CCACDDACEEACFFACA7019601C701B601DA
:101210000E945E142B013C01C501B4010E942313FE
:1012200020E030E040E850E40E94821320E030E00B
:1012300040E85FE30E945E149B01AC01C301B20170
:101240000E94CA149B01AC01C701B6010E945D1443
:101250003B016C01FE01E05CFF4FE080F180028108
:1012600013819701A8010E947215181614F47301D6
:101270008601C701D8018CAF9DAFAEAFBFAF3AC0FA
:101280000CA91DA92EA93FA91C141D041E041F048E
:101290000CF468CF10161106120613060CF099CF45
:1012A0000027112798010C191D092E093F09601705
:1012B0007107820793070CF062CF2A8121115FCF5B
:1012C0008CA89DA8AEA8BFA881149104A104B10464
:1012D00009F096CF88AD99ADAAADBBAD8CAF9DAFEF
:1012E000AEAFBFAF81E01C141D041E041F040CF040
:1012F00080E08A833FEF831A930AA30AB30A8CAA79
:101300009DAAAEAABFAACCACDDACEEACFFACC701C7
:10131000B6010E9443156CA37DA38EA39FA3A701D2
:10132000960160E074E284E799E40E94CA146C8B31
:101330007D8B8E8B9F8B2A81211103CF90586C8BD4
:101340007D8B8E8B9F8BFDCE61E086E20C949504A5
:101350008F929F92AF92BF92CF92DF92EF92FF92C5
:10136000CF93DF9300D000D000D0CDB7DEB7962F5B
:1013700050E070E060E0592B682B722BA62FB52F40
:10138000F42E472F552766277727E42E30E020E0FC
:1013900080916F039091700328173907B0F5609121
:1013A0007503DF2CCB2E9A2E662361F0A69FC00119
:1013B0001124992E6B9FC0011124C92E6F9DC0016D
:1013C0001124D92EE0917B038091760390917703CD
:1013D00070917803E713D7C0B901660F771F620FCA
:1013E000731F860F971FE0917803E80FF92FF11D07
:1013F0009082E0917903E80FF92FF11DC08260918E
:101400007A03860F911DFC01D0822F5F3F4F203160
:10141000310509F0BDCF8091760390917703892B38
:1014200009F47CC00E945205C0907C03D0907D03DB
:10143000E0907E03F0907F036C157D058E059F057F
:1014400040F460937C0370937D0380937E039093BC
:101450007F03C0907C03D0907D03E0907E03F090EA
:101460007F036C197D098E099F096C3271408105DB
:101470009105C0F2F89480917103909172039A8360
:101480008983E0917603F0917703DF0111968081E3
:10149000898790916D03E0918003F09181038091A1
:1014A0008203992309F485C09081982B98879081B5
:1014B000809589238F838F818C8388E08B835885E7
:1014C0006F8149853B812C8189819A81508347FDB9
:1014D000252F3A952083262F39F0441F00C00000A5
:1014E0006083000000C0F2CF38E04D9160830000BF
:1014F000019761F7F0938103E093800349873B8371
:101500002C839A83898378940E94520560937C038C
:1015100070937D0380937E0390937F030E94520516
:101520004B015C0184E6C82ED12CE12CF12C0E94E9
:101530005205681979098A099B09683E734081053B
:101540009105A8F321E0C21AD108E108F10888EE5C
:10155000880E83E0981EA11CB11CC114D104E104C3
:10156000F10429F729960FB6F894DEBF0FBECDBF60
:10157000DF91CF91FF90EF90DF90CF90BF90AF9031
:101580009F908F9008955901AA0CBB1CAA0CBB1CFC
:101590008A0D9B1D662359F0649F5001659FB00C16
:1015A00011246B2DE80FF92FF11D60831CCF6E2DD8
:1015B000F9CF9081982B98879081809589238F838C
:1015C0008F818E8388E08D8358856F8149853D8129
:1015D0002E8189819A81508347FD252F00C000C04C
:1015E000208300C000C000C000C000C060830000B5
:1015F000262F3A9541F0441F000000C000C000C0F3
:1016000000C000C0E8CF38E04D9100C0608300C04A
:10161000019709F7F0938103E093800349873D83A5
:101620002E836FCFFC0101900020E9F73197AF01C5
:10163000481B590BBC018CE892E00C944603CF93F5
:10164000DF930E942904EC0182E392E00E94120BD6
:101650008C0F9D1FDF91CF910895CF92DF92EF9273
:10166000FF92C0904A02D0904B020D2C000CEE0865
:10167000FF088CE492E0092E000CAA0BBB0BC80EED
:10168000D91EEA1EFB1E8CE492E082309105ECF03C
:10169000FC0120812223C9F0AC01092E000C660B4D
:1016A000770B4C155D056E057F057CF4263439F407
:1016B0000196FF90EF90DF90CF900C94731160E251
:1016C00070E00E9440170196E0CF60E070E0CB012F
:1016D000FF90EF90DF90CF9008954F925F926F92BE
:1016E0007F928F929F92AF92BF92CF92DF92EF92B2
:1016F000FF92CF93DF93EC016A017B0120E030E0A1
:10170000A901CB01B6010E941C1387FF04C0F7FAA0
:10171000F094F7F8F0948C8C9D8CAE8CBF8CA70164
:101720009601C501B4010E941C13882309F449C025
:101730006CA97DA98EA99FA90E9423132B013C01AE
:10174000A7019601C501B4010E94CA149B01AC0116
:10175000C301B2010E9482130E943C156CAB7DABA9
:101760008EAB9FABA701960160E070E080E090E453
:101770000E94CA140E947D1526E53EE04DE25FE31B
:101780000E94821320E034E244E759E40E9482136D
:1017900068AF79AF8AAF9BAFCC8EDD8EEE8EFF8EB9
:1017A000CE01DF91CF91FF90EF90DF90CF90BF906F
:1017B000AF909F908F907F906F905F904F900C9420
:1017C0005208DF91CF91FF90EF90DF90CF90BF90C4
:1017D000AF909F908F907F906F905F904F90089503
:1017E000CF93DF93EC018AE092E0998388836B8347
:1017F0001C861D861E861F86188A198A1A8A1B8ACD
:101800001C8A1D8A1E8A1F8A80E090E0A0E8BFE340
:10181000888F998FAA8FBB8F1C8E1D8E1E8E1F8E58
:1018200088A399A3AAA3BBA31CA21DA21EA21FA2A8
:1018300061E070E07DA76CA73FEF3FA718A619A64F
:101840001AA61BA64C832D8324E02E8325E02F832C
:101850001EA61CAA1DAA1EAA1FAA18AE19AE1AAE51
:101860001BAE1CAE1DAE1EAE1FAEFE01E05CFF4FF8
:1018700080839183A283B3831A82188619861A867D
:101880001B86CE010E94770540E050E060E87FE3D0
:10189000CE01DF91CF910C946D0BCF92DF92EF923E
:1018A000FF921F93CF93DF93182FEB01C0904A0252
:1018B000D0904B020D2C000CEE08FF088CE492E057
:1018C000092E000CAA0BBB0BC80ED91EEA1EFB1E6C
:1018D0008CE492E0823091052CF1FC0120812223DE
:1018E00009F1AC01092E000C660B770B4C155D0558
:1018F0006E057F05BCF421130FC001960E9477117D
:10190000BC01990F880B990BDF91CF911F91FF902C
:10191000EF90DF90CF90089560E270E00E94401752
:101920000196D8CFBE01DD0F880B990BEDCF1F922A
:101930000F920FB60F9211240BB60F922F933F9375
:101940004F935F936F937F938F939F93AF93BF93C7
:10195000EF93FF938CE892E00E94BA03FF91EF911E
:10196000BF91AF919F918F917F916F915F914F91B7
:101970003F912F910F900BBE0F900FBE0F901F90B5
:1019800018951F920F920FB60F9211240BB60F925B
:101990002F938F939F93EF93FF93E0919C02F0918D
:1019A0009D028081E091A202F091A30282FD1DC000
:1019B00090818091A5028F5F8F732091A60282177C
:1019C00041F0E091A502F0E0E457FD4F958F809340
:1019D000A502FF91EF919F918F912F910F900BBED8
:1019E0000F900FBE0F901F9018958081F2CF1F921D
:1019F0000F920FB60F9211242F933F938F939F93C3
:101A0000AF93BF938091410290914202A091430213
:101A1000B09144023091400223E0230F2D3758F556
:101A20000196A11DB11D2093400280934102909325
:101A30004202A0934302B0934402809145029091E8
:101A40004602A0914702B09148020196A11DB11D26
:101A50008093450290934602A0934702B0934802B8
:101A6000BF91AF919F918F913F912F910F900FBE9A
:101A70000F901F90189526E8230F0296A11DB11D07
:101A8000D2CF10928F0210928E0288EE93E0A0E0E7
:101A9000B0E08093900290939102A0939202B09351
:101AA000930284E292E090938D0280938C0285EC05
:101AB00090E0909399028093980284EC90E0909348
:101AC0009B0280939A0280EC90E090939D02809319
:101AD0009C0281EC90E090939F0280939E0282ECA6
:101AE00090E09093A1028093A00286EC90E0909306
:101AF000A3028093A2021092A5021092A602109255
:101B0000A7021092A80227E346E362E089E293E08D
:101B10000E94F00B10926E031092750310927C03DA
:101B200010927D0310927E0310927F0383E08093D6
:101B30007B0381E0809378031092790392E0909385
:101B40007A0380936D0380E490E090937203809316
:101B500071030E941B16909377038093760300977E
:101B600089F120E4FC0111922A95E9F780E190E0E7
:101B70009093700380936F0384E090E090937403DC
:101B80008093730380916E03882341F061E084E0C9
:101B90000E94210560E084E00E949504E5E5F4E000
:101BA000E491F0E0EE0FFF1FE95CFB4F859194910B
:101BB0009093810380938003E5EFF3E0E491E09359
:101BC00082030895109272031092710310927003B1
:101BD00010926F03D1CFCF93DF93CDB7DEB7C4544C
:101BE000D1090FB6F894DEBF0FBECDBF789484B58F
:101BF000826084BD84B5816084BD85B5826085BD09
:101C000085B5816085BD80916E00816080936E0096
:101C10001092810080918100826080938100809188
:101C20008100816080938100809180008160809339
:101C300080008091B10084608093B1008091B000F9
:101C400081608093B00080919100826080939100C8
:101C500080919100816080939100809190008160DB
:101C6000809390008091A10082608093A100809178
:101C7000A10081608093A1008091A0008160809389
:101C8000A000809121018260809321018091210137
:101C900081608093210180912001816080932001E7
:101CA00080917A00846080937A0080917A008260CB
:101CB00080937A0080917A00816080937A0080918D
:101CC0007A00806880937A001092C100E0919C02B3
:101CD000F0919D0282E08083E0919802F091990258
:101CE0001082E0919A02F0919B0280E18083109231
:101CF000A402E091A002F091A10286E08083E0912D
:101D00009E02F0919F02808180618083E0919E021B
:101D1000F0919F02808188608083E0919E02F09123
:101D20009F02808180688083E0919E02F0919F02F3
:101D300080818F7D808361E089E00E94210561E0E0
:101D40008AE00E94210561E084E00E94210560E0B4
:101D500084E00E94950460E089E00E94950460E0C0
:101D60008AE00E94950461E086E20E94210561E01C
:101D700086E30E94210520E030E84BE355E46091C2
:101D800041037091420380914303909144030E9468
:101D90001C13882309F453C080E090E8ABE3B5E45A
:101DA0008093410390934203A0934303B093440371
:101DB0008BEA9AEAA6EAB3E48093690390936A03F4
:101DC000A0936B03B0936C0380915D0390915E03CD
:101DD000A0915F03B0916003181619061A061B063E
:101DE00074F560913D0370913E0380913F039091A3
:101DF00040039B01AC010E9482136B017C01609146
:101E000045037091460380914703909148039B01DD
:101E1000AC010E945E149B01AC01C701B6010E9497
:101E2000CA140E943C1560935D0370935E03809317
:101E30005F039093600389E293E00E94520840E0C0
:101E400050E06AEF74E489E293E00E94DD070E94AB
:101E5000A409809173039091740397FD08C061E019
:101E60000E94210560E0809173030E94950481E047
:101E700080936E030E94A40915E38CE892E00E940F
:101E8000A403181619060CF0DBC18CE892E00E943E
:101E90008203082F682F8CE892E00E94DC03809177
:101EA0004A0290914B028F3391055CF49C012F5FA5
:101EB0003F4F30934B0220934A02845B9D4FFC01BD
:101EC00000830A3011F00D30C1F6E0914A02F09122
:101ED0004B02E45BFD4F10826FEF7FEF87E40E94BF
:101EE0004D0C6230710509F497C024F577FF2CC0C2
:101EF0006FEF7FEF8DE40E944D0C6331710509F4A3
:101F00008AC10CF004C16D30710509F47FC10CF079
:101F1000F2C06430710509F453C16530710509F4EC
:101F200057C110924B0210924A028FEE93E00E942A
:101F30001F0BA3CF6630710509F4D9C06730710556
:101F4000B9F610924902D4CF0E942D0B4B015C01CF
:101F500070E060E08CE40E944D0C70E060E084E58D
:101F60000E944D0C6B017C01C114D104E104F10409
:101F700009F4BECF23E042E064E0CE0101960E9466
:101F8000F00BCE0101960E9481020D2C000CEE0890
:101F9000FF088D859E85AF85B8898C0D9D1DAE1D72
:101FA000BF1D49895A896B897C8984179507A607C3
:101FB000B70741F0898B9A8BAB8BBC8BCE01019616
:101FC0000E945208B501A401CE0101960E94DD07CE
:101FD00049895A896B897C89CD84DE84EF84F888AD
:101FE0008DA09EA0AFA0B8A481E0C416D506E606D9
:101FF000F7060CF080E04C155D056E057F0509F4D1
:1020000077CF81149104A104B104A9F38B83CE018D
:1020100001960E949807DCCF0E942D0B4B015C01BA
:1020200070E060E08CE40E944D0C70E060E084E5BC
:102030000E944D0C6B017C01C114D104E104F10438
:1020400009F456CF23E042E064E0CE0101960E94FD
:10205000F00BCE0101960E948102B501A401CE01D0
:1020600001960E94DD0740E050E06AEF73E4CE0184
:1020700001960E946D0B89899A89AB89BC89C81623
:10208000D906EA06FB0641F0C98ADA8AEB8AFC8A9D
:10209000CE0101960E9452088DA19EA1AFA1B8A5C4
:1020A000892B8A2B8B2B51F0CE0101960E94980729
:1020B000882321F0CE0101960E94520820E030E0F2
:1020C000A9016D897E898F89988D0E941C138111C9
:1020D000E3CF49895A896B897C898D859E85AF8537
:1020E000B889481759076A077B07B1F601CF81E025
:1020F00080934902FDCE6131710509F487C024F453
:102100006E30710509F00DCF0E94A4090ACF663127
:10211000710509F485C05CF46431710509F47EC071
:102120006531710509F0FDCE61E089E071C0683C60
:10213000710509F477C0693C710509F47CC0643607
:10214000710509F0EECE89EC93E00E94290485E345
:1021500092E00E94120B82E392E00E94120B8FEB3E
:1021600093E00E941F0B81EA93E00E941F0B81E71E
:1021700093E00E941F0B85E293E00E941F0B80E119
:1021800093E00E941F0B8AEF92E00E941F0B80EEEB
:1021900092E00E941F0B85EC92E00E941F0B8AEADE
:1021A00092E00E941F0B8EE892E00E941F0B84E7D2
:1021B00092E00E941F0B8FE492E00E941F0BB1CEB1
:1021C00060E089E00E94950460E08AE00E94950446
:1021D00070E060E087E50E944D0C2B0170E060E04C
:1021E00082E40E944D0C4B0170E060E087E40E94A5
:1021F0004D0C6B0170E060E082E50E944D0CCB015C
:102200009201A401B6010E94A8098BCE60E086E28B
:102210000E94950486CE61E08AE0FACF60E0FCCFB0
:1022200060E083CF85E392E00E94120B82E392E0AC
:102230000E94120B76CE19A218A3CE018096F4CF7D
:10224000809149028823E1F140E050E06AE774E4BC
:1022500089E293E00E94DD07809135039091360377
:10226000A0913703B09138030A96A11DB11D40918A
:10227000390350913A0360913B0370913C038417FA
:102280009507A607B70761F08093390390933A0347
:10229000A0933B03B0933C0389E293E00E94520871
:1022A00080914D0390914E03A0914F03B091500344
:1022B000892B8A2B8B2B21F089E293E00E949807CF
:1022C0000E946404DACD80917603909177030E9496
:1022D000B716809173039091740397FD03C060E07B
:1022E0000C9421050895662777270C949D11FC0115
:1022F00088279927E89421912032E9F3293010F0BA
:102300002E30C8F32B3241F02D3239F4689404C0DA
:102310000E949511820F911D219120532A30C0F304
:102320001EF4909581959F4F08957AE0979F902D88
:10233000879F802D910D112408958F929F92AF92C7
:10234000BF92CF92DF92EF92FF920F931F93CF93A2
:10235000DF935C017B016115710519F0DB018D9341
:102360009C9385010F5F1F4FF501D0818D2F90E069
:102370000E94FB126C01892BB9F5DD32B9F50F5FB4
:102380001F4FD5011196DC91C1E05801F1E0AF1A61
:10239000B10843E050E06CEB71E0C5010E9404130A
:1023A000892B69F5680182E0C80ED11C45E050E038
:1023B00067EB71E0C6010E940413892B21F46801C8
:1023C00097E0C90ED11CE114F10419F0D701CD92A8
:1023D000DC9260E070E080E89FEFC111FFC060E038
:1023E00070E080E89FE7FAC05801BBCFDB3229F4E8
:1023F00085010E5F1F4FF501D181C0E0C6CF43E0DC
:1024000050E064EB71E0C5010E940413892BE9F0F0
:10241000F80110E000E020E030E0A9015F01B0ED3C
:102420008B2E8D0E89E08815C8F19C2E689491F84A
:102430008C2F8870C2FF16C0811102C00F5F1F4F22
:102440003196D501DC91C92DE9CFE114F10429F0D1
:102450000E5F1F4FF7011183008360E070E080EC96
:102460009FE7BCC0882311F001501109A5E0B0E03E
:102470000E9443149B01AC01220F331F441F551FC0
:10248000280D311D411D511D283999E9390749078A
:1024900099E15907A8F2C6609C2ED2CFAEEF8A12FE
:1024A00006C0C3FD3CC09C2E689493F8C9CFDF7D65
:1024B000D534A9F580818D3239F4C061DF011296DF
:1024C000818162E070E006C0DF018B32C1F31196BA
:1024D00061E070E080535D01A61AB70A8A30F8F413
:1024E000E0E8CE16ECE0DE065CF4B601660F771F7E
:1024F000660F771FC60ED71ECC0CDD1CC80ED11C74
:102500005D01FFEFAF1ABF0A8C9180538A30A8F1AA
:10251000C4FF03C0D194C194D1080C0D1D1DC1FF8F
:1025200009C0E114F10431F081E0A81AB108D70123
:10253000AD92BC92CA01B9010E942113C370C3308D
:1025400009F490584B015C0120E030E0A9010E94A1
:102550001C13882309F440C0CBEED1E017FF05C05F
:10256000119501951109C3EDD1E06E01B8E1CB1AC7
:10257000D10880E2E82EF12C0FC0D501B1CFFE01C9
:1025800025913591459154910E191F09C501B4014A
:102590000E9482134B015C01D501C4010E151F0579
:1025A00074F72497F594E794CC16DD06A9F78A2FE3
:1025B000880F8B2F881F8F3F49F020E030E0A90162
:1025C000C501B4010E941C13811106C082E290E093
:1025D0009093840380938303C501B401DF91CF916D
:1025E0001F910F91FF90EF90DF90CF90BF90AF9031
:1025F0009F908F90089591110C94EF13803219F0F1
:1026000089508550C8F70895FB01DC0141505040C6
:1026100088F08D9181341CF08B350CF4805E6591CF
:1026200061341CF06B350CF4605E861B611171F334
:10263000990B0895881BFCCF0E945E1308F481E07B
:102640000895E89409C097FB3EF4909580957095A5
:1026500061957F4F8F4F9F4F9923A9F0F92F96E9EE
:10266000BB279395F695879577956795B795F11163
:10267000F8CFFAF4BB0F11F460FF1BC06F5F7F4F00
:102680008F4F9F4F16C0882311F096E911C0772312
:1026900021F09EE8872F762F05C0662371F096E81B
:1026A000862F70E060E02AF09A95660F771F881FEA
:1026B000DAF7880F9695879597F90895990F00088E
:1026C000550FAA0BE0E8FEEF16161706E807F90704
:1026D000C0F012161306E407F50798F0621B730B9F
:1026E000840B950B39F40A2661F0232B242B252B20
:1026F00021F408950A2609F4A140A6958FEF811DC3
:10270000811D08950E9495130C9409140E94FB13D7
:1027100038F00E94021420F0952311F00C94F2136B
:102720000C94F81311240C943D140E941A1470F3A5
:10273000959FC1F3950F50E0551F629FF001729F66
:10274000BB27F00DB11D639FAA27F00DB11DAA1F75
:10275000649F6627B00DA11D661F829F2227B00DC2
:10276000A11D621F739FB00DA11D621F839FA00D4D
:10277000611D221F749F3327A00D611D231F849F9D
:10278000600D211D822F762F6A2F11249F575040F4
:102790009AF0F1F088234AF0EE0FFF1FBB1F661F6F
:1027A000771F881F91505040A9F79E3F510580F038
:1027B0000C94F2130C943D145F3FE4F3983ED4F371
:1027C000869577956795B795F795E7959F5FC1F7DC
:1027D000FE2B880F911D9695879597F90895992757
:1027E0008827089597F99F6780E870E060E0089572
:1027F0009FEF80EC089500240A9416161706180619
:102800000906089500240A941216130614060506F4
:102810000895092E0394000C11F4882352F0BB0F85
:1028200040F4BF2B11F460FF04C06F5F7F4F8F4FE8
:102830009F4F089557FD9058440F551F59F05F3F23
:1028400071F04795880F97FB991F61F09F3F79F0D2
:1028500087950895121613061406551FF2CF469554
:10286000F1DF08C0161617061806991FF1CF8695D6
:102870007105610508940895E894BB2766277727BA
:10288000CB0197F908950E944E14A59F900DB49F17
:10289000900DA49F800D911D11240895A29FB00159
:1028A000B39FC001A39F700D811D1124911DB29F84
:1028B000700D811D1124911D08955058BB27AA2722
:1028C0000E9475140C9409140E94FB1338F00E94A6
:1028D000021420F039F49F3F19F426F40C94F813F5
:1028E0000EF4E095E7FB0C94F213E92F0E941A1402
:1028F00058F3BA17620773078407950720F079F435
:10290000A6F50C943C140EF4E0950B2EBA2FA02DD6
:102910000B01B90190010C01CA01A0011124FF278C
:10292000591B99F0593F50F4503E68F11A16F04087
:10293000A22F232F342F4427585FF3CF4695379586
:102940002795A795F0405395C9F77EF41F16BA0B4B
:10295000620B730B840BBAF09150A1F0FF0FBB1FF9
:10296000661F771F881FC2F70EC0BA0F621F731F42
:10297000841F48F4879577956795B795F7959E3F9F
:1029800008F0B0CF9395880F08F09927EE0F979530
:10299000879508950E94DE140C9409140E94021475
:1029A00058F00E94FB1340F029F45F3F29F00C948B
:1029B000F21351110C943D140C94F8130E941A1444
:1029C00068F39923B1F3552391F3951B550BBB275E
:1029D000AA2762177307840738F09F5F5F4F220FA3
:1029E000331F441FAA1FA9F335D00E2E3AF0E0E89A
:1029F00032D091505040E695001CCAF72BD0FE2FE4
:102A000029D0660F771F881FBB1F26173707480777
:102A1000AB07B0E809F0BB0B802DBF01FF2793582F
:102A20005F4F3AF09E3F510578F00C94F2130C94EE
:102A30003D145F3FE4F3983ED4F386957795679510
:102A4000B795F7959F5FC9F7880F911D9695879564
:102A500097F90895E1E0660F771F881FBB1F621783
:102A600073078407BA0720F0621B730B840BBA0B41
:102A7000EE1F88F7E09508950E9443156894B11100
:102A80000C943D1408950E94221488F09F5798F0EA
:102A9000B92F9927B751B0F0E1F0660F771F881F63
:102AA000991F1AF0BA95C9F714C0B13091F00E947D
:102AB0003C14B1E008950C943C14672F782F8827BC
:102AC000B85F39F0B93FCCF3869577956795B395A4
:102AD000D9F73EF490958095709561957F4F8F4F13
:102AE0009F4F08950E945E1308F48FEF089519F424
:102AF00016F40C94F8130C94BD150E942214B8F32C
:102B00009923C9F3B6F39F57550B87FF0E94CB1546
:102B10000024A0E640EA900180585695979528F445
:102B2000805C660F771F881F20F02617370748073D
:102B300030F4621B730B840B202931294A2BA69594
:102B400017940794202531254A2758F7660F771FD9
:102B5000881F20F026173707480730F4620B730BE5
:102B6000840B200D311D411DA09581F7B901842FE3
:102B70009158880F9695879508959F3F31F0915011
:102B800020F4879577956795B795880F911D969551
:102B9000879597F9089591505040660F771F881FC9
:102BA000D2F70895052E97FB1EF400940E94E915B4
:102BB00057FD07D00E94F91507FC03D04EF40C9482
:102BC000E91550954095309521953F4F4F4F5F4FF8
:102BD000089590958095709561957F4F8F4F9F4F89
:102BE0000895EE0FFF1F881F8BBF0790F691E02D11
:102BF0001994A1E21A2EAA1BBB1BFD010DC0AA1F2E
:102C0000BB1FEE1FFF1FA217B307E407F50720F055
:102C1000A21BB30BE40BF50B661F771F881F991FD0
:102C20001A9469F760957095809590959B01AC0119
:102C3000BD01CF0108950F931F93CF93DF9382308F
:102C4000910510F482E090E0E0918703F091880311
:102C500030E020E0B0E0A0E0309799F42115310594
:102C600009F44AC0281B390B24303105D8F58A8174
:102C70009B816115710589F1FB0193838283FE01BC
:102C800011C0408151810281138148175907E0F03A
:102C90004817590799F4109761F012960C93129700
:102CA00013961C933296CF01DF91CF911F910F9114
:102CB00008950093870310938803F4CF21153105FD
:102CC00051F04217530738F0A901DB019A01BD0109
:102CD000DF01F801C1CFEF01F9CF90938803809312
:102CE0008703CDCFFE01E20FF31F81939193225012
:102CF000310939832883D7CF20918503309186030A
:102D0000232B41F420910202309103023093860379
:102D10002093850320910002309101022115310595
:102D200041F42DB73EB74091040250910502241B97
:102D3000350BE0918503F0918603E217F307A0F4C9
:102D40002E1B3F0B2817390778F0AC014E5F5F4F01
:102D50002417350748F04E0F5F1F509386034093AA
:102D60008503819391939FCFF0E0E0E09CCFCF93D8
:102D7000DF930097E9F0FC01329713821282A09151
:102D80008703B0918803ED0130E020E01097A1F4B3
:102D900020813181820F931F20918503309186031A
:102DA0002817390709F061C0F0938603E093850383
:102DB000DF91CF910895EA01CE17DF07E8F54A8148
:102DC0005B819E0141155105B1F7E901FB83EA835F
:102DD00049915991C40FD51FEC17FD0761F480810B
:102DE00091810296840F951FE901998388838281DE
:102DF00093819B838A83F0E0E0E012968D919C9111
:102E000013970097B9F52D913C911197CD0102963A
:102E1000820F931F2091850330918603281739076D
:102E200039F6309751F51092880310928703B093CA
:102E30008603A0938503BCCFD383C2834081518195
:102E4000840F951FC817D90761F44E5F5F4F8881C3
:102E50009981480F591F518340838A819B819383B5
:102E600082832115310509F0B0CFF0938803E093F8
:102E700087039ECFFD01DC01C0CF13821282D7CF22
:102E8000FC018191861721F08823D9F799270895AD
:102E90003197CF01089512E0CDE4D2E000E006C002
:102EA000802FFE010E94F1152196011DCE34D1071D
:102EB00080E00807A9F7F894FFCF0000890380009D
:102EC00000000000AB05770510074E07FA06C8069C
:102ED000A70673065206FC05C90500000000DC03C6
:102EE000460373034404A403820396030D0A007689
:0A2EF0002E3230323230393130001A
:020000040003F7
:10E000000D9489F10D94B2F10D94B2F10D94B2F129
:10E010000D94B2F10D94B2F10D94B2F10D94B2F1F0
:10E020000D94B2F10D94B2F10D94B2F10D94B2F1E0
:10E030000D94B2F10D94B2F10D94B2F10D94B2F1D0
:10E040000D94B2F10D94B2F10D94B2F10D94B2F1C0
:10E050000D94B2F10D94B2F10D94B2F10D94B2F1B0
:10E060000D94B2F10D94B2F10D94B2F10D94B2F1A0
:10E070000D94B2F10D94B2F10D94B2F10D94B2F190
:10E080000D94B2F10D94B2F10D94B2F10D94B2F180
:10E090000D94B2F10D94B2F10D94B2F10D94B2F170
:10E0A0000D94B2F10D94B2F10D94B2F10D94B2F160
:10E0B0000D94B2F10D94B2F10D94B2F10D94B2F150
:10E0C0000D94B2F10D94B2F10D94B2F10D94B2F140
:10E0D0000D94B2F10D94B2F10D94B2F10D94B2F130
:10E0E0000D94B2F141546D656761323536300041AF
:10E0F000726475696E6F206578706C6F72657220DE
:10E1000073746B3530305632206279204D4C530099
:10E11000426F6F746C6F616465723E004875683F52
:10E1200000436F6D70696C6564206F6E203D200048
:10E130004350552054797065202020203D20005FF9
:10E140005F4156525F415243485F5F3D2000415658
:10E1500052204C696243205665723D20004743437C
:10E160002056657273696F6E203D20004350552024
:10E1700049442020202020203D20004C6F7720663D
:10E18000757365202020203D20004869676820665F
:10E190007573652020203D200045787420667573D6
:10E1A00065202020203D20004C6F636B2066757336
:10E1B000652020203D20004D617220203720323024
:10E1C000313300312E362E3800342E332E350056A2
:10E1D00023202020414444522020206F7020636F70
:10E1E00064652020202020696E73747275637469E1
:10E1F0006F6E2061646472202020496E74657272B3
:10E20000757074006E6F20766563746F7200726A49
:10E210006D702020006A6D70200057686174207056
:10E220006F72743A00506F7274206E6F7420737541
:10E2300070706F72746564004D7573742062652030
:10E2400061206C6574746572002000577269747483
:10E25000696E672045450052656164696E672045B7
:10E26000450045452065727220636E743D00504F35
:10E27000525400303D5A65726F2061646472003FF1
:10E280003D43505520737461747300403D454550C3
:10E29000524F4D207465737400423D426C696E6B41
:10E2A000204C454400453D44756D70204545505215
:10E2B0004F4D00463D44756D7020464C415348001B
:10E2C000483D48656C70004C3D4C69737420492F83
:10E2D0004F20506F72747300513D51756974005234
:10E2E0003D44756D702052414D00563D73686F7707
:10E2F00020696E7465727275707420566563746FF0
:10E30000727300593D506F727420626C696E6B00BD
:10E310002A0011241FBECFEFD1E2DEBFCDBF01E046
:10E320000CBF12E0A0E0B2E0EEE1FDEF03E00BBFB6
:10E3300002C007900D92A030B107D9F712E0A0E01B
:10E34000B2E001C01D92AE30B107E1F70F9460F367
:10E350000D948DFE01E20EBF0FEF0DBF11241FBE05
:10E360000D9460F30D9400F020E030E040ED57E0B4
:10E3700005C0FA013197F1F72F5F3F4F2817390792
:10E38000C0F308959C01260F311DC901A0E0B0E043
:10E390002F5F3F4FABBFFC018791882361F08093D3
:10E3A000C6008091C00086FFFCCF8091C0008064D1
:10E3B0008093C000EACF08958DE08093C6008091DD
:10E3C000C00086FFFCCF8091C00080648093C000B5
:10E3D0008AE08093C6008091C00086FFFCCF8091C8
:10E3E000C00080648093C00008950F94C2F10F9420
:10E3F000DCF10895FC019081992359F09093C600B7
:10E400008091C00086FFFCCF8091C0008064809323
:10E41000C0003196992379F70895282F982F929567
:10E420009F70892F805D8A3308F0895F8093C600D2
:10E430008091C00086FFFCCF8091C00080648093F3
:10E44000C000822F8F70982F905D9A3308F0995FEB
:10E450009093C6008091C00086FFFCCF8091C000E1
:10E4600080648093C00008959C01FB01853691056E
:10E470001CF46330710594F0C90164E670E00F94F8
:10E480002EFE605D7F4F6093C6008091C00086FFC6
:10E49000FCCF8091C00080648093C0002B30310598
:10E4A00014F43297B4F0C90164E670E00F942EFEC4
:10E4B0006AE070E00F942EFE605D7F4F6093C600AF
:10E4C0008091C00086FFFCCF8091C0008064809363
:10E4D000C000C9016AE070E00F942EFEC0968093E0
:10E4E000C6008091C00086FFFCCF8091C000806490
:10E4F0008093C00008951F93182F8EE692EE60E07F
:10E500000F94C2F11093C6008091C00086FFFCCF2B
:10E510008091C00080648093C0000F94DCF11F9153
:10E5200008952F923F924F925F926F927F928F92B7
:10E530009F92AF92BF92CF92DF92EF92FF920F9392
:10E540001F93DF93CF93CDB7DEB762970FB6F894E2
:10E55000DEBF0FBECDBF382E622ECA01DB015C01CB
:10E560006D01772420E2222E2E010894411C511CBB
:10E570008BC081E0A81680E0B80681E0C80680E084
:10E58000D80628F0C601AA27BB270F940DF2BB2797
:10E59000AD2D9C2D8B2D0F940DF28A2D0F940DF225
:10E5A0002092C6008091C00086FFFCCF8091C00001
:10E5B00080648093C0009DE29093C6008091C0006B
:10E5C00086FFFCCF8091C00080648093C0002092C1
:10E5D000C6008091C00086FFFCCF8091C00080649F
:10E5E0008093C00019828601750188249924A1E0D6
:10E5F0003A1651F03A1620F0B2E03B1661F409C029
:10E600000BBFF701779007C0C7010F9477FE782EF4
:10E6100002C0F7017080872D0F940DF22092C60082
:10E620008091C00086FFFCCF8091C0008064809301
:10E63000C000872D8052F401EF70F0708F3520F408
:10E64000E40DF51D708204C0E40DF51D8EE280839B
:10E650000894E11CF11C011D111D0894811C911CE2
:10E6600090E18916910409F0C2CF80E190E0A0E02A
:10E67000B0E0A80EB91ECA1EDB1E198AC2010F9493
:10E68000FAF10F94DCF16A94662009F072CF629679
:10E690000FB6F894DEBF0FBECDBFCF91DF911F91B3
:10E6A0000F91FF90EF90DF90CF90BF90AF909F9031
:10E6B0008F907F906F905F904F903F902F90089534
:10E6C0002F923F924F925F926F927F928F929F9282
:10E6D000AF92BF92CF92DF92EF92FF920F931F9370
:10E6E000DF93CF93CDB7DEB7CD53D1400FB6F894BB
:10E6F000DEBF0FBECDBF01E20EBF0FEF0DBF94B75F
:10E70000F894A89514BE80916000886180936000A1
:10E7100010926000789493FF05C0E0910002F091A0
:10E7200001021995279A2F9A8091C00082608093E8
:10E73000C00080E18093C40088E18093C1000000A4
:10E74000EE24FF24870144E0A42EB12CCC24DD2448
:10E7500024C0C5010197F1F70894E11CF11C011DCB
:10E76000111D21E2E2162EE4F20620E0020720E06D
:10E77000120718F031E0C32ED12CC801B70127ECE5
:10E780003BE140E050E00F9441FE611571058105C9
:10E79000910519F485B1805885B98091C00087FD35
:10E7A00003C0C114D104A9F2A6014F5F5F4FC25E3E
:10E7B000DE4F59834883CE51D140C25EDE4F8881FF
:10E7C0009981CE51D140019711F00D9410FEC05D9A
:10E7D000DE4F19821882C053D14060E0C15DDE4F28
:10E7E0001882CF52D14088249924C35DDE4F19820C
:10E7F0001882CD52D140C05EDE4F188219821A8233
:10E800001B82C052D140CE5CDE4F188219821A8220
:10E810001B82C253D140EE24FF2487010BBFF701B6
:10E8200007911691C45CDE4F19830883CC53D14005
:10E830000D940BFEC25EDE4F28813981CE51D1404E
:10E840002130310509F52091C600C25EDE4F1982E4
:10E850001882CE51D14022C02F5F3F4F4F4F5F4FA4
:10E86000213082E138078AE7480780E0580780F0C6
:10E87000C45CDE4FE881F981CC53D140EF5FFF4F9C
:10E8800019F0EE27FF27099420E030E040E050E047
:10E890008091C00087FFE0CF2091C600C35DDE4FAE
:10E8A00048815981CD52D1404F5F5F4FC35DDE4FEC
:10E8B00059834883CD52D140213209F063C64A3092
:10E8C000510508F05FC60894811C911C53E0851621
:10E8D000910409F059C600E010E018C081E280936D
:10E8E000C6008091C00086FFFCCF8091C00080648C
:10E8F0008093C0002F5F3F4F2931310579F70F9486
:10E90000DCF10F5F1F4F0530110519F020E030E0FA
:10E91000E5CF10920A0210920B0210920C02109294
:10E920000D02109206021092070210920802109235
:10E930000902109202021092030210920402109235
:10E9400005028FEE90EE60E00F94F5F180E191EE1C
:10E9500060E00F94C2F18091C00087FFFCCF9091DE
:10E96000C600903608F09F759032B8F09093C600BC
:10E970008091C00086FFFCCF8091C00080648093AE
:10E98000C000A0E2A093C6008091C00086FFFCCF2B
:10E990008091C00080648093C000983409F4D7C18E
:10E9A0009934B8F4923409F459C1933458F490333B
:10E9B00019F1903308F4E3C59F33A1F1903409F0C5
:10E9C000DEC5BDC0953409F470C1963409F0D7C5D1
:10E9D00098C1923509F42BC2933538F49C3409F46C
:10E9E000F5C1913509F0CBC518C2963509F445C279
:10E9F000993509F0C4C567C483E792EE62E00F94CD
:10EA0000F5F110920602109207021092080210927D
:10EA1000090210920A0210920B0210920C0210923C
:10EA20000D0213C18FE792EE62E00F94F5F18FEEC5
:10EA300090EE60E00F94F5F181E291EE60E00F94CA
:10EA4000C2F187EB91EE60E00F94F5F180E391EE77
:10EA500060E00F94C2F184EE90EE60E00F94F5F167
:10EA60008FE391EE60E00F94C2F186E090E061E008
:10EA700070E00F9434F20F94DCF18DE591EE60E0DC
:10EA80000F94C2F189EC91EE60E00F94F5F18EE401
:10EA900091EE60E00F94C2F183EC91EE60E00F9490
:10EAA000F5F18CE691EE60E00F94C2F18EE10F94E7
:10EAB0000DF288E90F940DF281E00F940DF20F949E
:10EAC000DCF18BE791EE60E00F94C2F119E0E0E039
:10EAD000F0E010935700E4918E2F0F940DF20F94F5
:10EAE000DCF18AE891EE60E00F94C2F1E3E0F0E03F
:10EAF00010935700E4918E2F0F940DF20F94DCF1D8
:10EB000089E991EE60E00F94C2F1E2E0F0E0109349
:10EB10005700E4918E2F0F940DF20F94DCF188EAE8
:10EB200091EE60E00F94C2F1E1E0F0E01093570045
:10EB30001491812F0F940DF20F94DCF107CF8BE825
:10EB400092EE62E00F94F5F18BE492EE60E00F94A8
:10EB5000F5F10F94DCF100E010E019C0C8016F2D51
:10EB60000F947FFEFF2031F489E492EE60E00F9471
:10EB7000C2F10BC0F092C6008091C00086FFFCCFAE
:10EB80008091C00080648093C0000F5F1F4FC80158
:10EB900081519F41A0E0B0E0ABBFFC01F790BAE229
:10EBA000FB1621F0E2E000301E07C1F60F94DCF105
:10EBB0000F94DCF187E592EE60E00F94F5F10F948D
:10EBC000DCF1CC24DD2400E010E01EC0C8010F946D
:10EBD00077FEF82E882331F489E492EE60E00F94FA
:10EBE000C2F10BC08093C6008091C00086FFFCCFAD
:10EBF0008091C00080648093C000FE1419F00894D6
:10EC0000C11CD11C0F5F1F4FC80181519F41A0E063
:10EC1000B0E0ABBFFC01E790FAE2EF1621F022E092
:10EC20000030120799F60F94DCF10F94DCF182E6C4
:10EC300092EE60E00F94C2F1C60161E070E00F94C3
:10EC400034F20F94DCF10F94DCF110920202109276
:10EC50000302109204021092050278CE89E992EE26
:10EC600062E00F94F5F1279A2F9A16C02F9880E052
:10EC700090E0E0EDF7E03197F1F7019684369105E9
:10EC8000C1F72F9A80E090E0E0EDF7E03197F1F7DF
:10EC9000019684369105C1F78091C00087FFE6CFC9
:10ECA0008091C00087FFFCCF64C485EA92EE62E0E9
:10ECB0000F94F5F140910202509103026091040219
:10ECC0007091050281E020E10F9491F2809102029F
:10ECD00090910302A0910402B091050280509F4FD1
:10ECE000AF4FBF4F8093020290930302A0930402A0
:10ECF000B093050280509041A040B04008F426CE69
:10ED0000A4CF83EB92EE62E00F94F5F140910602FE
:10ED100050910702609108027091090280E020E1A1
:10ED20000F9491F28091060290910702A09108023F
:10ED3000B091090280509F4FAF4FBF4F80930602A2
:10ED400090930702A0930802B0930902FFCD80ECD4
:10ED500092EE62E00F94F5F183E792EE60E00F949B
:10ED6000F5F18FE792EE60E00F94F5F18BE892EE0B
:10ED700060E00F94F5F189E992EE60E00F94F5F10F
:10ED800085EA92EE60E00F94F5F183EB92EE60E09D
:10ED90000F94F5F180EC92EE60E00F94F5F187ECC2
:10EDA00092EE60E00F94F5F188ED92EE60E00F9442
:10EDB000F5F18FED92EE60E00F94F5F18AEE92EEB0
:10EDC00060E00F94F5F183E093EEBDCD87EC92EE19
:10EDD00062E00F94F5F181E40F947BF282E40F94EA
:10EDE0007BF283E40F947BF284E40F947BF285E45E
:10EDF0000F947BF286E40F947BF287E40F947BF20E
:10EE000088E40F947BF28AE40F947BF28BE40F94F6
:10EE10007BF28CE40F947BF299CD88ED92EE62E068
:10EE20000F94F5F1772473948824992409C48FED05
:10EE300092EE62E00F94F5F140910A0250910B02BC
:10EE400060910C0270910D0282E020E10F9491F22A
:10EE500080910A0290910B02A0910C02B0910D02D8
:10EE600080509F4FAF4FBF4F80930A0290930B0289
:10EE7000A0930C02B0930D0269CD8AEE92EE62E08F
:10EE80000F94F5F184EE90EE60E00F94F5F18FECC5
:10EE900091EE60E00F94F5F1662477244301CC5D98
:10EEA000DE4F19821882C452D140D401C301B695F5
:10EEB000A79597958795CA5DDE4F88839983AA8326
:10EEC000BB83C652D140CC5DDE4FA881B981C4520C
:10EED000D1401196CC5DDE4FB983A883C452D14096
:10EEE000CD0162E070E00F9434F2B0E2B093C6005E
:10EEF0008091C00086FFFCCF8091C0008064809329
:10EF0000C000EDE2E093C6008091C00086FFFCCF18
:10EF10008091C00080648093C000F0E2F093C6004E
:10EF20008091C00086FFFCCF8091C00080648093F8
:10EF3000C000CA5DDE4FE880F9800A811B81C6529D
:10EF4000D140BB27A12F902F8F2D0F940DF2CA5DBA
:10EF5000DE4F8881C652D1400F940DF2B0E2FB2EF5
:10EF6000F092C6008091C00086FFFCCF8091C00067
:10EF700080648093C0000DE30093C6008091C000C0
:10EF800086FFFCCF8091C00080648093C00010E2B7
:10EF90001093C6008091C00086FFFCCF8091C00016
:10EFA00080648093C0008BBEF3012791C65DDE4F65
:10EFB0002883CA52D140A22EBB24CC24DD2408943D
:10EFC000611C711C811C911C8BBEF3018791282E42
:10EFD0003324442455240894611C711C811C911C09
:10EFE0008BBEF3013791C55DDE4F3883CB52D140E4
:10EFF0000894611C711C811C911C8BBEF30147910C
:10F00000C45DDE4F4883CC52D140ADEFEA2EAFEF66
:10F01000FA2EAFEF0A2FAFEF1A2F6E0C7F1C801E57
:10F02000911E142D032DF22CEE24EA0CFB1C0C1D5A
:10F030001D1D0F940DF220E22093C6008091C000A8
:10F0400086FFFCCF8091C00080648093C000C65DC5
:10F05000DE4F8881CA52D1400F940DF230E23093D6
:10F06000C6008091C00086FFFCCF8091C000806404
:10F070008093C000C45DDE4F8881CC52D1400F9494
:10F080000DF240E24093C6008091C00086FFFCCFA5
:10F090008091C00080648093C000C55DDE4F888190
:10F0A000CB52D1400F940DF250E25093C6008091A4
:10F0B000C00086FFFCCF8091C00080648093C000B8
:10F0C0008FEFE8168FEFF80680E0080780E018075A
:10F0D00031F484E092EE60E00F94C2F1DFC0D80119
:10F0E000C7018070907CA070B0708050904CA040A0
:10F0F000B040D1F52FEF3FE340E050E0E222F322B1
:10F1000004231523CA5DDE4FA880B980CA80DB8046
:10F11000C652D140AE0CBF1CC01ED11EAA0CBB1CD7
:10F12000CC1CDD1C8EE092EE60E00F94C2F1BB2798
:10F13000A12F902F8F2D0F940DF28E2D0F940DF285
:10F1400030E23093C6008091C00086FFFCCF8091F2
:10F15000C00080648093C0004EE34093C60080915D
:10F16000C00086FFFCCF87C08EE09EEFA0E0B0E03D
:10F17000E822F9220A231B239CE0E91694E9F90608
:10F1800090E0090790E0190709F088C0C45DDE4FE0
:10F19000A881CC52D140EA2EFF2400E010E0102FCD
:10F1A0000F2DFE2CEE24C55DDE4FB881CB52D14031
:10F1B000EB0EF11C011D111DD601C501817090706F
:10F1C000A070B070DC0199278827E80EF91E0A1F8D
:10F1D0001B1F20EF30E040E050E0A222B322C42207
:10F1E000D52241E1AA0CBB1CCC1CDD1C4A95D1F7F1
:10F1F000EA0CFB1C0C1D1D1D81E090E0A0E0B0E0BE
:10F20000282239224A225B2235E1220C331C441C7D
:10F21000551C3A95D1F7E20CF31C041D151D57013E
:10F220006801AA0CBB1CCC1CDD1C85E192EE60E0E1
:10F230000F94C2F1C801AA27BB270F940DF2BB2778
:10F24000A12F902F8F2D0F940DF28E2D0F940DF274
:10F2500090E29093C6008091C00086FFFCCF809121
:10F26000C00080648093C000AEE3A093C60080918C
:10F27000C00086FFFCCF8091C00080648093C000F6
:10F28000C601AA27BB270F940DF2BB27AD2D9C2DDD
:10F290008B2D0F940DF28A2D0F940DF20F94DCF14B
:10F2A000CC5DDE4FE881F981C452D140F99709F471
:10F2B0004DCBF4E0EF2EF12C012D112D6E0C7F1CA7
:10F2C000801E911EF2CD83E093EE62E00F94F5F183
:10F2D0008AE192EE60E00F94C2F18091C00087FF56
:10F2E000FCCF1091C6001F751093C6008091C0001E
:10F2F00086FFFCCF8091C00080648093C0000F9493
:10F30000DCF1812F81548A3108F036C1163409F4BA
:10F3100095C0173490F4133409F44EC0143430F40B
:10F320001134F1F0123409F01DC130C0143409F465
:10F3300059C0153409F016C16BC01A3409F4C4C0A1
:10F340001B3438F4173409F48FC0183409F00AC19B
:10F35000A1C01B3409F4D2C01C3409F003C1E8C0B9
:10F360008FEF81B90DC082B1809582B980E090E0C5
:10F37000E0EDF7E03197F1F70196883C9105C1F790
:10F380008091C00087FFEFCF12B8EFC08FEF84B934
:10F390000DC085B1809585B980E090E0E0EDF7E0A3
:10F3A0003197F1F70196883C9105C1F78091C00033
:10F3B00087FFEFCF15B8D9C08FEF87B90DC088B1DF
:10F3C000809588B980E090E0E0EDF7E03197F1F7C3
:10F3D0000196883C9105C1F78091C00087FFEFCF6F
:10F3E00018B8C3C08FEF8AB90DC08BB180958BB9A7
:10F3F00080E090E0E0EDF7E03197F1F70196883C8E
:10F400009105C1F78091C00087FFEFCF1BB8ADC059
:10F410008FEF8DB90DC08EB180958EB980E090E0F0
:10F42000E0EDF7E03197F1F70196883C9105C1F7DF
:10F430008091C00087FFEFCF1EB897C08FEF80BBD1
:10F440000DC081B3809581BB80E090E0E0EDF7E0F6
:10F450003197F1F70196883C9105C1F78091C00082
:10F4600087FFEFCF11BA81C08FEF83BB0DC084B38C
:10F47000809584BB80E090E0E0EDF7E03197F1F714
:10F480000196883C9105C1F78091C00087FFEFCFBE
:10F4900014BA6BC08FEF809301010FC080910201FD
:10F4A00080958093020180E090E0E0EDF7E03197F5
:10F4B000F1F70196883C9105C1F78091C00087FF64
:10F4C000EDCF1092020151C08FEF809304010FC065
:10F4D0008091050180958093050180E090E0E0ED4A
:10F4E000F7E03197F1F70196883C9105C1F78091DB
:10F4F000C00087FFEDCF1092050137C08FEF8093DA
:10F5000007010FC08091080180958093080180E079
:10F5100090E0E0EDF7E03197F1F70196883C910536
:10F52000C1F78091C00087FFEDCF109208011DC088
:10F530008FEF80930A010FC080910B01809580931B
:10F540000B0180E090E0E0EDF7E03197F1F70196F4
:10F55000883C9105C1F78091C00087FFEDCF1092E4
:10F560000B0103C085E292EEEEC98091C00087FFD7
:10F57000FCCF8091C600EAC988E392EEE4C98CE131
:10F5800091EEE1C988249924933011F1943028F444
:10F59000913089F09230B8F408C0953061F195301F
:10F5A000F0F0963009F048C043C02B3109F042C951
:10F5B00091E06BE13FC96227C15DDE4F2883CF52E6
:10F5C000D14092E037C9B22FA0E0622793E032C960
:10F5D000822F90E0A82BB92B622794E02BC92E3004
:10F5E00009F039C3622795E0C05DDE4F19821882A9
:10F5F000C053D1401FC9E1E0F0E0EC0FFD1FC05D3A
:10F60000DE4F08811981C053D140E00FF11F2083E4
:10F610000F5F1F4FC05DDE4F19830883C053D14079
:10F6200062270A171B0709F005C9D80196E002C92D
:10F63000261709F010C303C0973009F0FBC87724E0
:10F640009981933109F412C19431C8F4963009F4C8
:10F65000D8C0973050F4923009F406C1933009F4C1
:10F660006DC0913009F059C253C0913109F477C08F
:10F67000923108F0BBC0903109F04FC2F5C098310B
:10F6800009F487C0993150F4953109F4EFC09531F0
:10F6900008F4C6C1963109F040C2C2C19A3109F4DA
:10F6A0006CC09A3108F491C09B3109F45BC09D3164
:10F6B00009F033C29D81903359F48F81882311F46E
:10F6C0009EE11CC0813011F091E018C098E916C08D
:10F6D000892F807591F0903539F4E0E0F0E089E011
:10F6E0008093570094910AC0983539F4E3E0F0E034
:10F6F00089E080935700949101C090E01A821B82A8
:10F700008D818C831D829E831F8227E030E009C299
:10F710001A8288E08B8381E48C8386E58D8382E581
:10F720008E8389E48F8383E5888780E589878FE5E9
:10F730008A8782E38B872BE030E0F3C18A818139AD
:10F7400041F0823941F0803911F48FE005C080E04A
:10F7500003C082E001C08AE01A828B8344C0772410
:10F76000739482C08D81882311F48EE12CC0813086
:10F7700011F081E028C088E926C01A82E1E0F0E0BB
:10F7800089E08093570084918B831C8224E030E0D1
:10F79000C8C18B81803589F48C81883039F4E2E0EE
:10F7A000F0E089E08093570084910DC0E0E0F0E044
:10F7B00089E080935700849106C0E3E0F0E089E09F
:10F7C0008093570084911A82DFCF8D81836C99E0FA
:10F7D000E1E0F0E0082E90935700E89507B600FCB2
:10F7E000FDCF1A821B8223E030E09BC180EC8A832C
:10F7F000CE5CDE4F188219821A821B82C253D1401E
:10F800008EC18A8190E0A0E0B0E0582F44273327D2
:10F8100022278B8190E0A0E0B0E0DC0199278827C7
:10F82000282B392B4A2B5B2B8D8190E0A0E0B0E098
:10F83000282B392B4A2B5B2B8C8190E0A0E0B0E089
:10F84000BA2FA92F982F8827282B392B4A2B5B2BCF
:10F85000220F331F441F551FC05EDE4F288339839C
:10F860004A835B83C052D1401A8259C13A81C95C34
:10F87000DE4F3883C753D140CA5CDE4F1882C6536F
:10F88000D1408B81C82EDD24CA5CDE4F488159816E
:10F89000C653D140C42AD52A933109F082C0CE5C28
:10F8A000DE4F88819981AA81BB81C253D1408050AB
:10F8B000904CA340B04030F583E0CE5CDE4FE88052
:10F8C000F9800A811B81C253D140F70100935B008C
:10F8D00080935700E89507B600FCFDCFCE5CDE4F65
:10F8E000088119812A813B81C253D14000501F4FAA
:10F8F0002F4F3F4FCE5CDE4F088319832A833B8313
:10F90000C253D140C05EDE4F488159816A817B81FC
:10F91000C052D140DE011B9631E08C9111962C91A2
:10F9200011971296C75CDE4F2883C953D140C85C3B
:10F93000DE4F1882C853D14090E0C85CDE4FE881AA
:10F94000F981C853D1408E2B9F2B0C01FA01609393
:10F950005B0030935700E89511244E5F5F4F6F4F67
:10F960007F4F0EEFE02E0FEFF02ECE0CDF1CC114F8
:10F97000D10499F685E0C05EDE4F088119812A81A5
:10F980003B81C052D140F80120935B008093570027
:10F99000E89507B600FCFDCF81E180935700E8951C
:10F9A00035C0C05EDE4F88819981AA81BB81C0527B
:10F9B000D140B695A795979587957C018601ABE0D8
:10F9C000AA2EB12CAC0EBD1E0BC0D5016D915D01F0
:10F9D000C7010F947FFE0894E11CF11C01501040F8
:10F9E0000115110591F7A60160E070E0440F551F65
:10F9F000661F771FC05EDE4FE880F9800A811B8199
:10FA0000C052D1404E0D5F1D601F711F1A82C05E33
:10FA1000DE4F488359836A837B83C052D1407FC0C5
:10FA2000FA80C55CDE4FF882CB53D140C65CDE4F16
:10FA30001882CA53D1408B81C82EDD24C65CDE4FAC
:10FA400008811981CA53D140C02AD12A1A828981DA
:10FA5000BE016D5F7F4F843121F59601C05EDE4FA0
:10FA6000E880F9800A811B81C052D1400BBFF701A9
:10FA700087919691DB018C9311969C936E5F7F4FDB
:10FA8000D801C7010296A11DB11DC05EDE4F88835B
:10FA90009983AA83BB83C052D14022503040F1F6F3
:10FAA00036C0C05EDE4F288139814A815B81C052F9
:10FAB000D1400894C108D108760100E010E0089414
:10FAC000C11CD11C0894E11CF11C011D111DE20E8A
:10FAD000F31E041F151F21BDBB27A52F942F832FB5
:10FAE00082BD2F5F3F4F4F4F5F4FF89A80B5DB01CC
:10FAF0008D93BD012E153F054007510761F7C05E8C
:10FB0000DE4F288339834A835B83C052D1409601FC
:10FB10002D5F3F4FFB01108204C080EC8A8322E0FE
:10FB200030E08BE18093C6008091C00086FFFCCF5F
:10FB30008091C00080648093C000C15DDE4FF88179
:10FB4000CF52D140F093C6008091C00086FFFCCF19
:10FB50008091C00080648093C000432F3093C60022
:10FB60008091C00086FFFCCF8091C00080648093AC
:10FB7000C000922F2093C6008091C00086FFFCCF6A
:10FB80008091C00080648093C0008EE08093C600A6
:10FB90008091C00086FFFCCF8091C000806480937C
:10FBA000C00065E1C15DDE4FE880CF52D1406E25D7
:10FBB00069276427FE01319610C090819093C6009A
:10FBC0008091C00086FFFCCF31968091C000806498
:10FBD0008093C0006927215030402115310569F715
:10FBE0006093C6008091C00086FFFCCF8091C0006A
:10FBF00080648093C00085B1805885B9772081F4F6
:10FC0000C15DDE4F0881CF52D1400F5FC15DDE4F35
:10FC10000883CF52D14090E0A0E0B0E00D941AF4F8
:10FC200027982F9880E090E020ED37E0F901319798
:10FC3000F1F7019684369105C9F700008091C00064
:10FC40008D7F8093C00081E180935700E895EE2777
:10FC5000FF270994FFCF90E00D941AF497FB092E2B
:10FC600007260AD077FD04D02ED006D000201AF443
:10FC7000709561957F4F0895F6F7909581959F4F08
:10FC80000895A1E21A2EAA1BBB1BFD010DC0AA1FDD
:10FC9000BB1FEE1FFF1FA217B307E407F50720F0F5
:10FCA000A21BB30BE40BF50B661F771F881F991F70
:10FCB0001A9469F760957095809590959B01AC01B9
:10FCC000BD01CF010895AA1BBB1B51E107C0AA1FAC
:10FCD000BB1FA617B70710F0A61BB70B881F991FED
:10FCE0005A95A9F780959095BC01CD010895F99991
:10FCF000FECF92BD81BDF89A992780B50895262F31
:10FD0000F999FECF1FBA92BD81BD20BD0FB6F89400
:0EFD1000FA9AF99A0FBE01960895F894FFCF63
:00000001FF
