:100000000C9428020C9459020C9459020C94590235
:100010000C9459020C9459020C9459020C945902F4
:100020000C9459020C9459020C9459020C945902E4
:100030000C9459020C9459020C9459020C945902D4
:100040000C9459020C9459020C9459020C945902C4
:100050000C9459020C9459020C9459020C94C60C3D
:100060000C9459020C94900C0C94660C0C9459024C
:100070000C9459020C9459020C9459020C94590294
:100080000C9459020C9459020C9459020C94590284
:100090000C9459020C9459020C9459020C94590274
:1000A0000C9459020C9459020C9459020C94590264
:1000B0000C9459020C9459020C9459020C94590254
:1000C0000C9459020C9459020C9459020C94590244
:1000D0000C9459020C9459020C9459020C94590234
:1000E0000C9459020C9420030C9451050C94D504E3
:1000F0000C94D4060C94D6050C944E070C94CB04A7
:100100000C949F040C94100D0C94C5040C94C80519
:100110000C94A2060C94CA050C9426110C94DD04D0
:100120000C94A3050C94E3040C944D060C9447071F
:100130000C94CC050C94D4050C94BE040C945C0374
:100140000C94EB040C943F070C9470030C94BA04C9
:100150000C94A4040C9428070C94C2040C948106FB
:100160000C9485050C94D2050C94F1040C946A0748
:100170000C94E7040C9471070C94D9040C94EA06CF
:100180000C94CF040C944D030C94B6030C945C07B0
:100190000C94CE050C94F5040C942C060C947E0360
:1001A0000C941E040C94B6040C94D0050C946307B4
:1001B0000C9455074E414E494E495459494E46CD2F
:1001C000CCCC3D0AD7233C17B7D13877CC2B32950E
:1001D00095E6241FB14F0A000020410000C84200EC
:1001E000401C4620BCBE4CCA1B0E5AAEC59D7400B6
:1001F000002100240027002A002D003000330001D8
:10020000010000040107010A0100000A0B02090CA9
:100210000D0E0807030401000000000000000000AC
:1002200000000000000000000000000000000000CE
:10023000000000000012111000000000000000008B
:100240000000000000000000000000000000004D61
:100250003131343B202D207265706F727420706FC5
:10026000736974696F6E20616E642066656564727F
:10027000617465004D3130303B202D207468697306
:100280002068656C70206D657373616765004D3221
:10029000323B202D207475726E207269676874205D
:1002A0006C61736572206F6666004D32313B202DA4
:1002B000207475726E207269676874206C61736552
:1002C00072206F6E004D32303B202D207475726E9F
:1002D000206C656674206C61736572206F666600C1
:1002E0004D31393B202D207475726E206C6566741B
:1002F000206C61736572206F6E004D31383B202D8C
:100300002064697361626C65206D6F746F72730035
:100310004D31373B202D20656E61626C65206D6F1D
:10032000746F727300473031205B542873746570AA
:1003300073295D205B4C287374657073295D205BA5
:1003400046286665656472617465295D3B202D20D1
:100350006D6F766500473030205B5428737465708C
:1003600073295D3B202D206C696E656172206D6F75
:10037000766500436F6D6D616E64733A004661622D
:100380005363616E20472D434F44444520496E74AA
:1003900065727072657465722056657273696F6EEE
:1003A0003A20003E000102102020080810204010D2
:1003B0002040800201020108040201010204081029
:1003C0002040808040201008040201800402018047
:1003D0004020100804020108040201010204081070
:1003E00020408001020408102040800000220025E7
:1003F0000028002B002E003100340002010000050F
:100400000108010B01050505050705080808080294
:100410000202020A0A08080404040401010101019D
:100420000101010303030303030303040707070C8C
:100430000C0C0C0C0C0C0C02020202060606060642
:100440000606060B0B0B0B0B0B0B0B00100D2611EE
:1004500011241FBECFEFD1E2DEBFCDBF00E00CBF45
:1004600023E0A0E4B2E001C01D92A938B207E1F791
:1004700012E0A0E0B2E0E0E4FEE200E00BBF02C068
:1004800007900D92A034B107D9F712E0C7E2D2E08D
:1004900000E006C021970109802FFE010E94B415DB
:1004A000C632D10780E00807A9F70E94B90D0C9465
:1004B0000E170C940000FC01A9E2B3E012968C9197
:1004C0001297828313968C911397838314968C9141
:1004D0001497848315968C911597858316968C9125
:1004E0001697868317968C911797878318968C9109
:1004F0001897808719968C91199781871A968C91F5
:100500001A9782871B968C911B9783871C964D9117
:100510005D916D917C911F9744875587668777879A
:1005200050964D915D916D917C915397408B518B7D
:10053000628B738B54964D915D916D917C91579721
:10054000448B558B668B778B58964D915D916D9151
:100550007C915B97408F518F628F738F5C964D912A
:100560005D916D917C915F97448F558F668F778FEA
:1005700090964D915D916D917C91939740A351A37D
:1005800062A373A394964D915D916D917C91979721
:1005900044A355A366A377A398964D915D916D9161
:1005A0007C919B9740A751A762A773A79C968D91BA
:1005B0009C919D9795A784A79E968C919E9786A7C0
:1005C0009F968C919F9787A7D0968D919C91D1975C
:1005D00091AB80ABD2968D919C91D39793AB82AB2C
:1005E000D4964D915D916D917C91D79744AB55AB6D
:1005F00066AB77ABD8964D915D916D917C91DB9711
:1006000040AF51AF62AF73AFDC968D919D910D906D
:10061000BC91A02D84AF95AFA6AFB7AF4091690351
:1006200050916A0360916B0370916C03DF01A05CD1
:10063000BF4F4D935D936D937C931397CF010895B6
:10064000AF92BF92CF92DF92EF92FF920F931F93E0
:10065000CF93DF936C017B018B01040F151FEB011E
:100660005E01AE18BF08C017D10759F06991D601D5
:10067000ED91FC910190F081E02DC6011995892B37
:1006800079F7C501DF91CF911F910F91FF90EF9006
:10069000DF90CF90BF90AF900895FC01538D448DB3
:1006A000252F30E0842F90E0821B930B541710F01D
:1006B000CF96089501970895FC01918D828D98172A
:1006C00061F0A28DAE0FBF2FB11D5D968C91928D02
:1006D0009F5F9F73928F90E008958FEF9FEF089533
:1006E000FC01918D828D981731F0828DE80FF11DFC
:1006F000858D90E008958FEF9FEF0895FC01918D17
:10070000228D892F90E0805C9F4F821B91098F730F
:10071000992708958CE892E00E947E0321E0892BBE
:1007200009F420E0822F0895FC01A48DA80FB92FB1
:10073000B11DA35ABF4F2C91848D90E001968F7309
:100740009927848FA689B7892C93A089B1898C9128
:10075000837080648C93938D848D981306C0028877
:10076000F389E02D80818F7D80830895EF92FF9241
:100770000F931F93CF93DF93EC0181E0888F9B8DC4
:100780008C8D98131AC0E889F989808185FF15C07E
:100790009FB7F894EE89FF896083E889F9898081A1
:1007A0008370806480839FBF81E090E0DF91CF9170
:1007B0001F910F91FF90EF900895F62E0B8D10E092
:1007C0000F5F1F4F0F731127E02E8C8D8E110CC001
:1007D0000FB607FCFACFE889F989808185FFF5CF4C
:1007E000CE010E949403F1CFEB8DEC0FFD2FF11D94
:1007F000E35AFF4FF0829FB7F8940B8FEA89FB8989
:1008000080818062CFCF0F931F93CF93DF938C01B2
:10081000D0E0C0E0F801EC0FFD1F6491662341F0C9
:100820008CE892E00E94B603892B11F02196F2CF5A
:10083000CE01DF91CF911F910F910895CF93DF9358
:10084000EC01888D8823B9F0AA89BB89E889F989E8
:100850008C9185FD03C0808186FD0DC00FB607FC1D
:10086000F7CF8C9185FFF2CF808185FFEDCFCE0150
:100870000E949403E9CFDF91CF91089580E090E04A
:10088000892B29F00E948A0381110E94000080E0D8
:1008900090E0892B49F080E090E0892B29F00E94BC
:1008A000000081110E94000080E090E0892B49F057
:1008B00080E090E0892B29F00E94000081110E94C5
:1008C000000080E090E0892B49F080E090E0892BE7
:1008D00029F00E94000081110C9400000895282F37
:1008E00030E0F901E75FFD4F9491F901EB55FC4FC2
:1008F00044912B5F3B4FF9012491222309F435C029
:10090000992311F191509231F8F4E92FF0E0882702
:10091000E357FB4F8F4F0C94B415BE04C2049F04E1
:10092000B604BA04A404C504CB04CF04D504D90486
:10093000DD04E304E704A404EB04F104F50480916E
:1009400080008F7780938000E22FF0E0EE0FFF1F92
:10095000E551FC4FA591B4918FB7F894EC916111DA
:1009600048C040954E234C938FBF089580918000DE
:100970008F7DE8CF80918000877FE4CF84B58F772B
:1009800084BDE2CF84B58F7DFBCF8091B0008F779F
:100990008093B000D9CF8091B0008F7DF9CF809146
:1009A00090008F7780939000CFCF809190008F7DC3
:1009B000F9CF80919000877FF5CF8091A0008F774D
:1009C0008093A000C1CF8091A0008F7DF9CF80914E
:1009D000A000877FF5CF809120018F778093200141
:1009E000B3CF809120018F7DF9CF80912001877F47
:1009F000F5CF4E2BB8CFCF93DF9390E0FC01EB55B2
:100A0000FC4F24918B5F9B4FFC0184918823D1F094
:100A100090E0880F991FFC01E151FE4FA591B49120
:100A2000FC01E551FC4FC591D49161110EC09FB7F7
:100A3000F8948C91E22FE0958E238C932881E22309
:100A4000E8839FBFDF91CF9108958FB7F894EC9121
:100A5000E22BEC938FBFF6CF3FB7F894809145021D
:100A600090914602A0914702B091480226B5A89BFA
:100A700005C02F3F19F00196A11DB11D3FBFBA2F30
:100A8000A92F982F8827BC01CD01620F711D811DF0
:100A9000911D42E0660F771F881F991F4A95D1F775
:100AA0000895CF93DF93FC012381222359F1EC01B8
:100AB00061E084810E94FB0461E08D810E94FB045F
:100AC0008B81843011F08830B1F461E08E810E9416
:100AD000FB0461E08F810E94FB048FA58F3F91F0A2
:100AE00061E00E94FB046EA581E068278FA5DF917D
:100AF000CF910C946F04833011F0863071F761E070
:100B00008E81E9CFDF91CF910895CF93DF93FC01E0
:100B100023812223A9F0EC010190F081E02D0480D3
:100B2000F581E02D60E019958FA58F3F49F061E0D8
:100B30000E94FB046EA58FA5DF91CF910C946F04EA
:100B4000DF91CF910895DC01ED91FC911197248103
:100B5000358147705527662777274150510961092C
:100B60007109473051056105710570F4FA01882754
:100B7000E354FA4F8F4F0C94B415C805CA05CC0541
:100B8000CE05D005D205D40561E0CD01F901199457
:100B900065E0FBCF64E0F9CF66E0F7CF62E0F5CF28
:100BA0006AE0F3CF68E0F1CF69E0EFCFCF93DF9356
:100BB000EC01CB01BA0126E030E040E050E00E94B9
:100BC0009515623071058105910589F16CF4611507
:100BD000710581059105D1F061307105810591059F
:100BE000F9F0DF91CF910895643071058105910589
:100BF00061F124F1653071058105910591F7E88176
:100C0000F9810480F581E02D66E006C0E881F98174
:100C10000480F581E02D64E0CE01DF91CF9119943D
:100C2000E881F9810480F581E02D65E0F5CFE88168
:100C3000F9810480F581E02D61E0EECFE881F98152
:100C40000480F581E02D63E0E7CFE881F98104803D
:100C5000F581E02D62E0E0CFDC01ED91FC910480B4
:100C6000F581E02D437055276627772742305105DF
:100C70006105710571F0433051056105710559F049
:100C8000413051056105710511F065E0199466E088
:100C9000FDCF6AE0FBCF69E0F9CFCF93DF93EC01A2
:100CA000CB01BA0123E030E040E050E00E9495150E
:100CB000613071058105910599F0623071058105FA
:100CC0009105A9F0672B682B692BC1F4E881F981A4
:100CD0000480F581E02D64E0CE01DF91CF9119947D
:100CE000E881F9810480F581E02D61E0F5CFE881AC
:100CF000F9810480F581E02D62E0EECFDF91CF91A4
:100D00000895DC01ED91FC910480F581E02D4370A4
:100D1000552766277727423051056105710571F027
:100D2000433051056105710559F0413051056105A8
:100D3000710511F062E0199463E0FDCF61E0FBCF33
:100D400060E0F9CFCF93DF93EC01E881F981048073
:100D5000F581E02D8A8160E0811162E0CE01199574
:100D6000E881F9810480F581E02D8A8161E08111BB
:100D700063E0CE0119958CA59DA58230910538F0D0
:100D8000880F991F880F991F05970197F1F7E88140
:100D9000F9810480F581E02D8A8160E0811162E0B3
:100DA000CE01DF91CF911994CF93DF93EC0120E036
:100DB00030E0A9016C897D898E899F890E94351553
:100DC00018162CF4E8A9F9A9DF91CF911994EAA992
:100DD000FBA9FACFCF92DF92EF92FF920F931F936E
:100DE000CF93DF93DC011396CC91C43039F0C83037
:100DF00059F1C33019F0C63049F1C2E08C010C5FE3
:100E00001F4FF12CE12CC62ED12CD1E0F8016481CA
:100E1000C6010E2C02C0959587950A94E2F780FDD5
:100E20006D270F5F1F4F80810E946F04BFEFEB1A89
:100E3000FB0AEC1658F3DF91CF911F910F91FF90B1
:100E4000EF90DF90CF900895C4E0D8CFC3E0D6CF25
:100E5000DC011396EC911397E93008F042C0F0E002
:100E60008827EA5CF84F8F4F0C94B4153F0747076B
:100E70004E0755075C077107630771076A07ED9115
:100E8000FC9111970084F185E02DCD011994ED912D
:100E9000FC9111970284F385E02DF7CFED91FC9141
:100EA00011970484F585E02DF0CFED91FC91119719
:100EB0000684F785E02DE9CFED91FC91119700882C
:100EC000F189E02DE2CFED91FC9111970288F38931
:100ED000E02DDBCFED91FC9111970488F589E02D91
:100EE000D4CF0895CF92DF92EF92FF92CF93DF930A
:100EF000EC010E942C056B017C0188A599A5AAA58F
:100F0000BBA5B701A601481B590B6A0B7B0B8CA133
:100F10009DA1AEA1BFA1481759076A077B0728F119
:100F20008C859D85AE85BF852A812223D1F00196CF
:100F3000A11DB11D8C879D87AE87BF874C855D85C0
:100F40006E857F85CE010E942807C8A6D9A6EAA68D
:100F5000FBA681E0DF91CF91FF90EF90DF90CF90E3
:100F600008950197A109B109E5CF80E0F3CF4F9231
:100F70005F926F927F92AF92BF92CF92DF92EF9289
:100F8000FF920F931F93CF93DF93EC015A018B01D4
:100F90009A01AB016C897D898E899F890E94DF123D
:100FA000882379F1488C598C6A8C7B8C730162019F
:100FB000F7FAF094F7F8F094A7019601B501C8018B
:100FC0000E94DF1287FD0CC0A3019201B501C80188
:100FD0000E94351573016201181614F0650178013D
:100FE00020E030E0A901C701B6010E94DF128111A3
:100FF00017C01CA21DA21EA21FA2CC8ADD8AEE8AE7
:10100000FF8ADF91CF911F910F91FF90EF90DF90BA
:10101000CF90BF90AF907F906F905F904F9008956A
:10102000A701960160E074E284E799E40E948D14C0
:101030009F770E9406156CA37DA38EA39FA311E04A
:1010400020E030E0A901C701B6010E94351518164D
:101050000CF010E01A83D1CF4F925F926F927F9283
:101060008F929F92AF92BF92CF92DF92EF92FF92B8
:101070000F931F93CF93DF93EC01C888D988EA8838
:10108000FB888C859D85AE85BF85C81AD90AEA0A7A
:10109000FB0A6C897D898E899F899B01AC010E9426
:1010A00045134B015C016C8D7D8D8E8D9F8D9B0159
:1010B000AC010E9421149B01AC01C501B4010E9446
:1010C0008D140E94FF14C114D104E104F10409F04D
:1010D000B1C062307105810591050CF0CBC01CA236
:1010E0001DA21EA21FA21C8A1D8A1E8A1F8A1CAA5C
:1010F0001DAA1EAA1FAADF91CF911F910F91FF90E9
:10110000EF90DF90CF90BF90AF909F908F907F90A7
:101110006F905F904F9008951016110612061306F7
:10112000B4F46C157D058E059F051CF42A812111F0
:10113000A1C09B01AC0188279927DC01821B930B7E
:10114000A40BB50B8CAB9DABAEABBFAB93C0011585
:1011500011052105310509F48DC06C157D058E053D
:101160009F050CF087C08A81882309F483C03095DD
:101170002095109501951F4F2F4F3F4F0CAB1DAB86
:101180002EAB3FAB77C0011511052105310509F4E0
:1011900071C08824992454018C189D08AE08BF089A
:1011A000681579058A059B050CF064C08A81811158
:1011B00061C0DDCFCCACDDACEEACFFACA7019601DD
:1011C000C701B6010E9421142B013C01C501B401E5
:1011D0000E94E61220E030E040E850E40E9445130F
:1011E00020E030E040E85FE30E9421149B01AC0165
:1011F000C301B2010E948D149B01AC01C701B6016D
:101200000E9420143B016C01FE01E05CFF4FE08076
:10121000F180028113819701A8010E9435151816EB
:1012200014F473018601C701D8018CAF9DAFAEAF36
:10123000BFAF3AC00CA91DA92EA93FA91C141D04BB
:101240001E041F040CF468CF1016110612061306B4
:101250000CF099CF0027112798010C191D092E09B0
:101260003F0960177107820793070CF062CF2A814C
:1012700021115FCF8CA89DA8AEA8BFA881149104AE
:10128000A104B10409F096CF88AD99ADAAADBBAD6C
:101290008CAF9DAFAEAFBFAF81E01C141D041E0428
:1012A0001F040CF080E08A833FEF831A930AA30A9D
:1012B000B30A8CAA9DAAAEAABFAACCACDDACEEAC98
:1012C000FFACC701B6010E9406156CA37DA38EA3D7
:1012D0009FA3A701960160E074E284E799E40E946D
:1012E0008D146C8B7D8B8E8B9F8B2A81211103CF6C
:1012F00090586C8B7D8B8E8B9F8BFDCE61E086E250
:101300000C946F048F929F92AF92BF92CF92DF9214
:10131000EF92FF92CF93DF9300D000D000D0CDB7F3
:10132000DEB7962F50E070E060E0592B682B6B0120
:10133000EE24FF24BC2DA52FB60130E020E08091E3
:101340006F039091700328173907C0F580917503DA
:10135000F42E5A2FEB2E882371F0869FF001879F81
:10136000F00D1124EF2E8A9FF00111245F2F849F2E
:10137000C0011124F92EE0917B03809176039091B6
:101380007703F0917803EF13D7C0F901EE0FFF1F39
:10139000E20FF31F8E0F9F1FE0917803E80FF92FE4
:1013A000F11DE082E0917903E80FF92FF11D5083E0
:1013B00050917A03850F911DFC01F0822F5F3F4F02
:1013C0002031310509F0BBCF8091760390917703EE
:1013D000892B09F47CC00E942C05C0907C03D0901E
:1013E0007D03E0907E03F0907F036C157D058E05F4
:1013F0009F0540F460937C0370937D0380937E038C
:1014000090937F03C0907C03D0907D03E0907E0397
:10141000F0907F036C197D098E099F096C32714031
:1014200081059105C0F2F894809171039091720347
:101430009A838983E0917603F0917703DF01119617
:101440008081898790916D03E0918003F091810301
:1014500080918203992309F47BC09081982B98870F
:101460009081809589238F838F818C8388E08B8303
:1014700058856F8149853B812C8189819A81508370
:1014800047FD252F3A952083262F39F0441F00C0B1
:1014900000006083000000C0F2CF38E04D9160830F
:1014A0000000019761F7F0938103E093800349877F
:1014B0003B832C839A83898378940E942C056093C4
:1014C0007C0370937D0380937E0390937F030E943F
:1014D0002C054B015C0184E6C82ED12CE12CF12CAB
:1014E0000E942C05681979098A099B09683E734096
:1014F00081059105A8F321E0C21AD108E108F1089D
:1015000088EE880E83E0981EA11CB11CC114D10482
:10151000E104F10429F729960FB6F894DEBF0FBE57
:10152000CDBFDF91CF91FF90EF90DF90CF90BF9034
:10153000AF909F908F9008956901CC0CDD1CCC0C6E
:10154000DD1C8C0D9D1DE80FF92FF11D108224CF9D
:101550009081982B98879081809589238F838F81A4
:101560008E8388E08D8358856F8149853D812E81EA
:1015700089819A81508347FD252F00C000C02083B8
:1015800000C000C000C000C000C060830000262F63
:101590003A9541F0441F000000C000C000C000C0E8
:1015A00000C0E8CF38E04D9100C0608300C00197D3
:1015B00009F7F0938103E093800349873D832E83ED
:1015C00079CFFC0101900020E9F73197AF01481B6A
:1015D000590BBC018CE892E00C942003CF93DF936D
:1015E0000E940304EC0182E392E00E94E10A8C0F66
:1015F0009D1FDF91CF910895CF92DF92EF92FF92DE
:10160000C0904A02D0904B020D2C000CEE08FF084F
:101610008CE492E0092E000CAA0BBB0BC80ED91E5D
:10162000EA1EFB1E8CE492E082309105ECF0FC0196
:1016300020812223C9F0AC01092E000C660B770B28
:101640004C155D056E057F057CF4263439F4019652
:10165000FF90EF90DF90CF900C94361160E270E035
:101660000E9403170196E0CF60E070E0CB01FF908D
:10167000EF90DF90CF9008954F925F926F927F929C
:101680008F929F92AF92BF92CF92DF92EF92FF9292
:10169000CF93DF93EC016A017B0120E030E0A901E8
:1016A000CB01B6010E94DF1287FF04C0F7FAF09465
:1016B000F7F8F0948C8C9D8CAE8CBF8CA7019601B2
:1016C000C501B4010E94DF12882309F449C06CA946
:1016D0007DA98EA99FA90E94E6122B013C01A701BA
:1016E0009601C501B4010E948D149B01AC01C30198
:1016F000B2010E9445130E94FF146CAB7DAB8EAB10
:101700009FABA701960160E070E080E090E40E944A
:101710008D140E94401526E53EE04DE25FE30E94F5
:10172000451320E034E244E759E40E94451368AFD2
:1017300079AF8AAF9BAFCC8EDD8EEE8EFF8ECE0161
:10174000DF91CF91FF90EF90DF90CF90BF90AF905F
:101750009F908F907F906F905F904F900C942C088B
:10176000DF91CF91FF90EF90DF90CF90BF90AF903F
:101770009F908F907F906F905F904F900895CF9340
:10178000DF93EC018AE092E0998388836B831C8667
:101790001D861E861F86188A198A1A8A1B8A1C8A29
:1017A0001D8A1E8A1F8A80E090E0A0E8BFE3888F30
:1017B000998FAA8FBB8F1C8E1D8E1E8E1F8E88A3A5
:1017C00099A3AAA3BBA31CA21DA21EA21FA261E0F3
:1017D00070E07DA76CA73FEF3FA718A619A61AA631
:1017E0001BA64C832D8324E02E8325E02F831EA689
:1017F0001CAA1DAA1EAA1FAA18AE19AE1AAE1BAEAD
:101800001CAE1DAE1EAE1FAEFE01E05CFF4F80831E
:101810009183A283B3831A82188619861A861B863F
:10182000CE010E94510540E050E060E87FE3CE0128
:10183000DF91CF910C943C0BCF92DF92EF92FF920D
:101840001F93CF93DF93182FEB01C0904A02D090E3
:101850004B020D2C000CEE08FF088CE492E0092EE0
:10186000000CAA0BBB0BC80ED91EEA1EFB1E8CE493
:1018700092E0823091052CF1FC012081222309F1B4
:10188000AC01092E000C660B770B4C155D056E053F
:101890007F05BCF421130FC001960E943A11BC01D0
:1018A000990F880B990BDF91CF911F91FF90EF90CB
:1018B000DF90CF90089560E270E00E9403170196D8
:1018C000D8CFBE01DD0F880B990BEDCF1F920F9281
:1018D0000FB60F9211240BB60F922F933F934F9395
:1018E0005F936F937F938F939F93AF93BF93EF9388
:1018F000FF938CE892E00E949403FF91EF91BF91D7
:10190000AF919F918F917F916F915F914F913F9197
:101910002F910F900BBE0F900FBE0F901F90189538
:101920001F920F920FB60F9211240BB60F922F93A6
:101930008F939F93EF93FF93E0919C02F0919D0210
:101940008081E091A202F091A30282FD1DC09081EE
:101950008091A5028F5F8F732091A602821741F0BC
:10196000E091A502F0E0E457FD4F958F8093A5022A
:10197000FF91EF919F918F912F910F900BBE0F9040
:101980000FBE0F901F9018958081F2CF1F920F927B
:101990000FB60F9211242F933F938F939F93AF9382
:1019A000BF938091410290914202A0914302B09175
:1019B00044023091400223E0230F2D3758F5019661
:1019C000A11DB11D209340028093410290934202D9
:1019D000A0934302B0934402809145029091460245
:1019E000A0914702B09148020196A11DB11D8093BC
:1019F000450290934602A0934702B0934802BF91DC
:101A0000AF919F918F913F912F910F900FBE0F90AB
:101A10001F90189526E8230F0296A11DB11DD2CF65
:101A200010928F0210928E0288EE93E0A0E0B0E058
:101A30008093900290939102A0939202B0939302AC
:101A400084E292E090938D0280938C0285EC90E08A
:101A5000909399028093980284EC90E090939B027B
:101A600080939A0280EC90E090939D0280939C0278
:101A700081EC90E090939F0280939E0282EC90E034
:101A80009093A1028093A00286EC90E09093A30231
:101A90008093A2021092A5021092A6021092A702B1
:101AA0001092A80227E346E362E089E293E00E94F5
:101AB000BF0B10926E031092750310927C0310926C
:101AC0007D0310927E0310927F0381E080937B035D
:101AD000809378031092790392E090937A03809335
:101AE0006D0380E390E090937203809371030E94F2
:101AF000DE159093770380937603009789F120E3B6
:101B0000FC0111922A95E9F780E190E0909370032F
:101B100080936F038DE090E0909374038093730340
:101B200080916E03882341F061E08DE00E94FB0408
:101B300060E08DE00E946F04E2E1F4E0E491F0E007
:101B4000EE0FFF1FE551FC4F859194919093810317
:101B500080938003E2EBF3E0E491E0938203089545
:101B600010927203109271031092700310926F031F
:101B7000D1CFCF93DF93CDB7DEB7C454D1090FB621
:101B8000F894DEBF0FBECDBF789484B5826084BD6B
:101B900084B5816084BD85B5826085BD85B5816071
:101BA00085BD80916E00816080936E0010928100EF
:101BB00080918100826080938100809181008160AA
:101BC000809381008091800081608093800080916B
:101BD000B10084608093B1008091B00081608093F7
:101BE000B00080919100826080939100809191007B
:101BF000816080939100809190008160809390003B
:101C00008091A10082608093A1008091A1008160F9
:101C10008093A1008091A00081608093A0008091BA
:101C20002101826080932101809121018160809354
:101C300021018091200181608093200180917A00B0
:101C4000846080937A0080917A00826080937A0029
:101C500080917A00816080937A0080917A00806818
:101C600080937A001092C100E0919C02F0919D0255
:101C700082E08083E0919802F09199021082E091D5
:101C80009A02F0919B0280E180831092A402E0917D
:101C9000A002F091A10286E08083E0919E02F09183
:101CA0009F02808180618083E0919E02F0919F027B
:101CB000808188608083E0919E02F0919F02808104
:101CC00080688083E0919E02F0919F0280818F7DE9
:101CD000808361E089E00E94FB0461E08AE00E9469
:101CE000FB0461E08DE00E94FB0460E08DE00E9457
:101CF0006F0460E089E00E946F0460E08AE00E9467
:101D00006F0461E086E20E94FB0461E086E30E94CA
:101D1000FB0420E030E84BE355E46091410370910F
:101D2000420380914303909144030E94DF12882371
:101D300009F453C080E090E8ABE3B5E4809341033D
:101D400090934203A0934303B09344038BEA9AEA2F
:101D5000A6EAB3E48093690390936A03A0936B03AC
:101D6000B0936C0380915D0390915E03A0915F033B
:101D7000B0916003181619061A061B0674F56091D7
:101D80003D0370913E0380913F03909140039B017E
:101D9000AC010E9445136B017C0160914503709179
:101DA000460380914703909148039B01AC010E9438
:101DB00021149B01AC01C701B6010E948D140E9441
:101DC000FF1460935D0370935E0380935F039093B1
:101DD000600389E293E00E942C0840E050E06AEF43
:101DE00074E489E293E00E94B7070E947E09809123
:101DF00073039091740397FD08C061E00E94FB0497
:101E000060E0809173030E946F0481E080936E0311
:101E10000E947E0915E38CE892E00E947E0318166A
:101E200019060CF0D0C18CE892E00E945C03082FE8
:101E3000682F8CE892E00E94B60380914A0290914C
:101E40004B028F3391055CF49C012F5F3F4F309321
:101E50004B0220934A02845B9D4FFC0100830A30B1
:101E600011F00D30C1F6E0914A02F0914B02E45BB3
:101E7000FD4F10826FEF7FEF87E40E941C0C6230F1
:101E8000710509F497C024F577FF2CC06FEF7FEF41
:101E90008DE40E941C0C6331710509F47FC10CF0C4
:101EA00004C16D30710509F474C10CF0F2C06430E6
:101EB000710509F44FC16530710509F453C11092E1
:101EC0004B0210924A0283EA93E00E94EE0AA3CFEB
:101ED0006630710509F4D9C067307105B9F6109202
:101EE0004902D4CF0E94FC0A4B015C0170E060E023
:101EF0008CE40E941C0C70E060E084E50E941C0CE5
:101F00006B017C01C114D104E104F10409F4BECFDA
:101F100023E042E064E0CE0101960E94BF0BCE01B7
:101F200001960E945B020D2C000CEE08FF088D85C7
:101F30009E85AF85B8898C0D9D1DAE1DBF1D49893D
:101F40005A896B897C8984179507A607B70741F0E2
:101F5000898B9A8BAB8BBC8BCE0101960E942C088F
:101F6000B501A401CE0101960E94B70749895A899B
:101F70006B897C89CD84DE84EF84F8888DA09EA057
:101F8000AFA0B8A481E0C416D506E606F7060CF0AB
:101F900080E04C155D056E057F0509F477CF81144F
:101FA0009104A104B104A9F38B83CE0101960E9490
:101FB0007207DCCF0E94FC0A4B015C0170E060E01C
:101FC0008CE40E941C0C70E060E084E50E941C0C14
:101FD0006B017C01C114D104E104F10409F456CF72
:101FE00023E042E064E0CE0101960E94BF0BCE01E7
:101FF00001960E945B02B501A401CE0101960E94E8
:10200000B70740E050E06AEF73E4CE0101960E940A
:102010003C0B89899A89AB89BC89C816D906EA061E
:10202000FB0641F0C98ADA8AEB8AFC8ACE01019666
:102030000E942C088DA19EA1AFA1B8A5892B8A2B47
:102040008B2B51F0CE0101960E947207882321F05C
:10205000CE0101960E942C0820E030E0A9016D8994
:102060007E898F89988D0E94DF128111E3CF498983
:102070005A896B897C898D859E85AF85B88948177B
:1020800059076A077B07B1F601CF81E080934902C7
:10209000FDCE6131710509F47CC024F46E30710508
:1020A00009F00DCF0E947E090ACF6631710509F44F
:1020B0007AC05CF46431710509F473C0653171054F
:1020C00009F0FDCE61E089E066C0683C710509F465
:1020D0006CC0693C710509F471C06436710509F082
:1020E000EECE8DE793E00E94030485E392E00E9428
:1020F000E10A82E392E00E94E10A83E793E00E9412
:10210000EE0A85E593E00E94EE0A85E293E00E94E4
:10211000EE0A80E193E00E94EE0A8AEF92E00E94CC
:10212000EE0A80EE92E00E94EE0A85EC92E00E94B8
:10213000EE0A8AEA92E00E94EE0A8EE892E00E949D
:10214000EE0A84E792E00E94EE0A8FE492E00E9499
:10215000EE0AB5CE60E089E00E946F0460E08AE09C
:102160000E946F0470E060E082E40E941C0C4B014E
:1021700070E060E087E40E941C0C6B0170E060E09E
:1021800082E50E941C0CCB01A401B6010E948209C9
:1021900096CE60E086E20E946F0491CE61E08AE014
:1021A000FACF60E0FCCF60E08ECF85E392E00E9442
:1021B000E10A82E392E00E94E10A81CE19A218A30B
:1021C000CE018096F4CF809149028823E1F140E06E
:1021D00050E06AE774E489E293E00E94B7078091D7
:1021E000350390913603A0913703B09138030A96D6
:1021F000A11DB11D4091390350913A0360913B03F9
:1022000070913C0384179507A607B70761F0809388
:10221000390390933A03A0933B03B0933C0389E2C4
:1022200093E00E942C0880914D0390914E03A09161
:102230004F03B0915003892B8A2B8B2B21F089E21D
:1022400093E00E9472070E943E04E5CD80917603E0
:10225000909177030E947A16809173039091740392
:1022600097FD03C060E00C94FB0408956627772770
:102270000C946011FC0188279927E8942191203261
:10228000E9F3293010F02E30C8F32B3241F02D3213
:1022900039F4689404C00E945811820F911D219155
:1022A00020532A30C0F31EF4909581959F4F0895D6
:1022B0007AE0979F902D879F802D910D112408958E
:1022C0008F929F92AF92BF92CF92DF92EF92FF9246
:1022D0000F931F93CF93DF935C017B016115710511
:1022E00019F0DB018D939C9385010F5F1F4FF50162
:1022F000D0818D2F90E00E94BE126C01892BB9F520
:10230000DD32B9F50F5F1F4FD5011196DC91C1E0A9
:102310005801F1E0AF1AB10843E050E06CEB71E016
:10232000C5010E94C712892B69F5680182E0C80EB9
:10233000D11C45E050E067EB71E0C6010E94C71276
:10234000892B21F4680197E0C90ED11CE114F10436
:1023500019F0D701CD92DC9260E070E080E89FEF49
:10236000C111FFC060E070E080E89FE7FAC058014B
:10237000BBCFDB3229F485010E5F1F4FF501D18100
:10238000C0E0C6CF43E050E064EB71E0C5010E94BD
:10239000C712892BE9F0F80110E000E020E030E0FE
:1023A000A9015F01B0ED8B2E8D0E89E08815C8F173
:1023B0009C2E689491F88C2F8870C2FF16C08111F2
:1023C00002C00F5F1F4F3196D501DC91C92DE9CFB7
:1023D000E114F10429F00E5F1F4FF7011183008310
:1023E00060E070E080EC9FE7BCC0882311F00150F2
:1023F0001109A5E0B0E00E9406149B01AC01220F78
:10240000331F441F551F280D311D411D511D2839F3
:1024100099E93907490799E15907A8F2C6609C2E46
:10242000D2CFAEEF8A1206C0C3FD3CC09C2E68948A
:1024300093F8C9CFDF7DD534A9F580818D3239F489
:10244000C061DF011296818162E070E006C0DF01A9
:102450008B32C1F3119661E070E080535D01A61AE2
:10246000B70A8A30F8F4E0E8CE16ECE0DE065CF459
:10247000B601660F771F660F771FC60ED71ECC0CEE
:10248000DD1CC80ED11C5D01FFEFAF1ABF0A8C9195
:1024900080538A30A8F1C4FF03C0D194C194D108FD
:1024A0000C0D1D1DC1FF09C0E114F10431F081E0E4
:1024B000A81AB108D701AD92BC92CA01B9010E9415
:1024C000E412C370C33009F490584B015C0120E062
:1024D00030E0A9010E94DF12882309F440C0CBEE4E
:1024E000D1E017FF05C0119501951109C3EDD1E0A9
:1024F0006E01B8E1CB1AD10880E2E82EF12C0FC0B2
:10250000D501B1CFFE0125913591459154910E1918
:102510001F09C501B4010E9445134B015C01D5019F
:10252000C4010E151F0574F72497F594E794CC1693
:10253000DD06A9F78A2F880F8B2F881F8F3F49F060
:1025400020E030E0A901C501B4010E94DF12811131
:1025500006C082E290E09093840380938303C501D8
:10256000B401DF91CF911F910F91FF90EF90DF9019
:10257000CF90BF90AF909F908F90089591110C9441
:10258000B213803219F089508550C8F70895FB01C5
:10259000DC014150504088F08D9181341CF08B3526
:1025A0000CF4805E659161341CF06B350CF4605E58
:1025B000861B611171F3990B0895881BFCCF0E9453
:1025C000211308F481E00895E89409C097FB3EF4D4
:1025D00090958095709561957F4F8F4F9F4F992370
:1025E000A9F0F92F96E9BB279395F69587957795EE
:1025F0006795B795F111F8CFFAF4BB0F11F460FFAE
:102600001BC06F5F7F4F8F4F9F4F16C0882311F005
:1026100096E911C0772321F09EE8872F762F05C019
:10262000662371F096E8862F70E060E02AF09A95B4
:10263000660F771F881FDAF7880F9695879597F9A9
:102640000895990F0008550FAA0BE0E8FEEF161643
:102650001706E807F907C0F012161306E407F50796
:1026600098F0621B730B840B950B39F40A2661F00A
:10267000232B242B252B21F408950A2609F4A140AD
:10268000A6958FEF811D811D08950E9458130C940B
:10269000CC130E94BE1338F00E94C51320F095237E
:1026A00011F00C94B5130C94BB1311240C9400146A
:1026B0000E94DD1370F3959FC1F3950F50E0551FF5
:1026C000629FF001729FBB27F00DB11D639FAA2787
:1026D000F00DB11DAA1F649F6627B00DA11D661FD6
:1026E000829F2227B00DA11D621F739FB00DA11DF7
:1026F000621F839FA00D611D221F749F3327A00DB1
:10270000611D231F849F600D211D822F762F6A2F4C
:1027100011249F5750409AF0F1F088234AF0EE0FB1
:10272000FF1FBB1F661F771F881F91505040A9F7DE
:102730009E3F510580F00C94B5130C9400145F3F3C
:10274000E4F3983ED4F3869577956795B795F7951A
:10275000E7959F5FC1F7FE2B880F911D9695879592
:1027600097F9089599278827089597F99F6780E832
:1027700070E060E008959FEF80EC089500240A94D3
:102780001616170618060906089500240A9412164C
:102790001306140605060895092E0394000C11F47F
:1027A000882352F0BB0F40F4BF2B11F460FF04C02C
:1027B0006F5F7F4F8F4F9F4F089557FD9058440F85
:1027C000551F59F05F3F71F04795880F97FB991F90
:1027D00061F09F3F79F0879508951216130614064D
:1027E000551FF2CF4695F1DF08C0161617061806DA
:1027F000991FF1CF86957105610508940895E894B5
:10280000BB2766277727CB0197F908950E941114FB
:10281000A59F900DB49F900DA49F800D911D112434
:102820000895A29FB001B39FC001A39F700D811DA9
:102830001124911DB29F700D811D1124911D0895C9
:102840005058BB27AA270E9438140C94CC130E941E
:10285000BE1338F00E94C51320F039F49F3F19F4DD
:1028600026F40C94BB130EF4E095E7FB0C94B5131F
:10287000E92F0E94DD1358F3BA1762077307840724
:10288000950720F079F4A6F50C94FF130EF4E0956B
:102890000B2EBA2FA02D0B01B90190010C01CA011A
:1028A000A0011124FF27591B99F0593F50F4503EC5
:1028B00068F11A16F040A22F232F342F4427585FB7
:1028C000F3CF469537952795A795F0405395C9F7CF
:1028D0007EF41F16BA0B620B730B840BBAF0915087
:1028E000A1F0FF0FBB1F661F771F881FC2F70EC026
:1028F000BA0F621F731F841F48F4879577956795F9
:10290000B795F7959E3F08F0B0CF9395880F08F0E4
:102910009927EE0F9795879508950E94A1140C941E
:10292000CC130E94C51358F00E94BE1340F029F446
:102930005F3F29F00C94B51351110C9400140C94C2
:10294000BB130E94DD1368F39923B1F3552391F370
:10295000951B550BBB27AA2762177307840738F00E
:102960009F5F5F4F220F331F441FAA1FA9F335D06B
:102970000E2E3AF0E0E832D091505040E695001C1F
:10298000CAF72BD0FE2F29D0660F771F881FBB1FD9
:10299000261737074807AB07B0E809F0BB0B802DB7
:1029A000BF01FF2793585F4F3AF09E3F510578F0E3
:1029B0000C94B5130C9400145F3FE4F3983ED4F3E9
:1029C000869577956795B795F7959F5FC9F7880FB7
:1029D000911D9695879597F90895E1E0660F771F09
:1029E000881FBB1F621773078407BA0720F0621B9A
:1029F000730B840BBA0BEE1F88F7E09508950E94C5
:102A000006156894B1110C94001408950E94E51302
:102A100088F09F5798F0B92F9927B751B0F0E1F09F
:102A2000660F771F881F991F1AF0BA95C9F714C04F
:102A3000B13091F00E94FF13B1E008950C94FF13A0
:102A4000672F782F8827B85F39F0B93FCCF3869588
:102A500077956795B395D9F73EF4909580957095E5
:102A600061957F4F8F4F9F4F08950E94211308F467
:102A70008FEF089519F416F40C94BB130C94801581
:102A80000E94E513B8F39923C9F3B6F39F57550B8A
:102A900087FF0E948E150024A0E640EA900180582E
:102AA0005695979528F4805C660F771F881F20F055
:102AB00026173707480730F4621B730B840B202955
:102AC00031294A2BA69517940794202531254A27AA
:102AD00058F7660F771F881F20F02617370748071B
:102AE00030F4620B730B840B200D311D411DA0953A
:102AF00081F7B901842F9158880F9695879508958D
:102B00009F3F31F0915020F4879577956795B79561
:102B1000880F911D9695879597F90895915050408B
:102B2000660F771F881FD2F70895052E97FB1EF4B6
:102B300000940E94AC1557FD07D00E94BC1507FCFD
:102B400003D04EF40C94AC155095409530952195DA
:102B50003F4F4F4F5F4F08959095809570956195C9
:102B60007F4F8F4F9F4F0895EE0FFF1F881F8BBF22
:102B70000790F691E02D1994A1E21A2EAA1BBB1B17
:102B8000FD010DC0AA1FBB1FEE1FFF1FA217B30739
:102B9000E407F50720F0A21BB30BE40BF50B661F4F
:102BA000771F881F991F1A9469F760957095809513
:102BB00090959B01AC01BD01CF0108950F931F9328
:102BC000CF93DF938230910510F482E090E0E091A2
:102BD0008703F091880330E020E0B0E0A0E0309778
:102BE00099F42115310509F44AC0281B390B24300A
:102BF0003105D8F58A819B816115710589F1FB0149
:102C000093838283FE0111C040815181028113812F
:102C100048175907E0F04817590799F4109761F0E1
:102C200012960C93129713961C933296CF01DF9154
:102C3000CF911F910F9108950093870310938803FC
:102C4000F4CF2115310551F04217530738F0A9018F
:102C5000DB019A01BD01DF01F801C1CFEF01F9CF1E
:102C60009093880380938703CDCFFE01E20FF31F7B
:102C7000819391932250310939832883D7CF2091B2
:102C8000850330918603232B41F420910202309179
:102C90000302309386032093850320910002309134
:102CA00001022115310541F42DB73EB740910402D0
:102CB00050910502241B350BE0918503F0918603AA
:102CC000E217F307A0F42E1B3F0B2817390778F003
:102CD000AC014E5F5F4F2417350748F04E0F5F1F62
:102CE0005093860340938503819391939FCFF0E0A7
:102CF000E0E09CCFCF93DF930097E9F0FC0132979F
:102D000013821282A0918703B0918803ED0130E015
:102D100020E01097A1F420813181820F931F209130
:102D20008503309186032817390709F061C0F093B5
:102D30008603E0938503DF91CF910895EA01CE17D2
:102D4000DF07E8F54A815B819E0141155105B1F726
:102D5000E901FB83EA8349915991C40FD51FEC1710
:102D6000FD0761F4808191810296840F951FE9012E
:102D700099838883828193819B838A83F0E0E0E05A
:102D800012968D919C9113970097B9F52D913C91D6
:102D90001197CD010296820F931F209185033091E8
:102DA00086032817390739F6309751F510928803B2
:102DB00010928703B0938603A0938503BCCFD3837F
:102DC000C28340815181840F951FC817D90761F4D0
:102DD0004E5F5F4F88819981480F591F518340830F
:102DE0008A819B81938382832115310509F0B0CFBD
:102DF000F0938803E09387039ECFFD01DC01C0CFF1
:102E000013821282D7CFFC018191861721F088238B
:102E1000D9F7992708953197CF01089512E0C7E2B5
:102E2000D2E000E006C0802FFE010E94B41521967A
:102E3000011DC832D10780E00807A9F7F894FFCF39
:102E40000000890380000000000085055105EA06A6
:102E50002807D406A20681064D062C06D605A30532
:102E600000000000B60320034D031E047E035C0334
:102E700070030D0A00762E3230323230373237008E
:00000001FF
